{
  "_format": "hh-sol-artifact-1",
  "contractName": "DEMO",
  "sourceName": "contracts/token/DEMO.sol",
  "abi": [
    {
      "inputs": [],
      "stateMutability": "nonpayable",
      "type": "constructor"
    },
    {
      "inputs": [
        {
          "internalType": "address",
          "name": "spender",
          "type": "address"
        },
        {
          "internalType": "uint256",
          "name": "allowance",
          "type": "uint256"
        },
        {
          "internalType": "uint256",
          "name": "needed",
          "type": "uint256"
        }
      ],
      "name": "ERC20InsufficientAllowance",
      "type": "error"
    },
    {
      "inputs": [
        {
          "internalType": "address",
          "name": "sender",
          "type": "address"
        },
        {
          "internalType": "uint256",
          "name": "balance",
          "type": "uint256"
        },
        {
          "internalType": "uint256",
          "name": "needed",
          "type": "uint256"
        }
      ],
      "name": "ERC20InsufficientBalance",
      "type": "error"
    },
    {
      "inputs": [
        {
          "internalType": "address",
          "name": "approver",
          "type": "address"
        }
      ],
      "name": "ERC20InvalidApprover",
      "type": "error"
    },
    {
      "inputs": [
        {
          "internalType": "address",
          "name": "receiver",
          "type": "address"
        }
      ],
      "name": "ERC20InvalidReceiver",
      "type": "error"
    },
    {
      "inputs": [
        {
          "internalType": "address",
          "name": "sender",
          "type": "address"
        }
      ],
      "name": "ERC20InvalidSender",
      "type": "error"
    },
    {
      "inputs": [
        {
          "internalType": "address",
          "name": "spender",
          "type": "address"
        }
      ],
      "name": "ERC20InvalidSpender",
      "type": "error"
    },
    {
      "anonymous": false,
      "inputs": [
        {
          "indexed": true,
          "internalType": "address",
          "name": "owner",
          "type": "address"
        },
        {
          "indexed": true,
          "internalType": "address",
          "name": "spender",
          "type": "address"
        },
        {
          "indexed": false,
          "internalType": "uint256",
          "name": "value",
          "type": "uint256"
        }
      ],
      "name": "Approval",
      "type": "event"
    },
    {
      "anonymous": false,
      "inputs": [
        {
          "indexed": true,
          "internalType": "address",
          "name": "from",
          "type": "address"
        },
        {
          "indexed": true,
          "internalType": "address",
          "name": "to",
          "type": "address"
        },
        {
          "indexed": false,
          "internalType": "uint256",
          "name": "value",
          "type": "uint256"
        }
      ],
      "name": "Transfer",
      "type": "event"
    },
    {
      "inputs": [
        {
          "internalType": "address",
          "name": "owner",
          "type": "address"
        },
        {
          "internalType": "address",
          "name": "spender",
          "type": "address"
        }
      ],
      "name": "allowance",
      "outputs": [
        {
          "internalType": "uint256",
          "name": "",
          "type": "uint256"
        }
      ],
      "stateMutability": "view",
      "type": "function"
    },
    {
      "inputs": [
        {
          "internalType": "address",
          "name": "spender",
          "type": "address"
        },
        {
          "internalType": "uint256",
          "name": "value",
          "type": "uint256"
        }
      ],
      "name": "approve",
      "outputs": [
        {
          "internalType": "bool",
          "name": "",
          "type": "bool"
        }
      ],
      "stateMutability": "nonpayable",
      "type": "function"
    },
    {
      "inputs": [
        {
          "internalType": "address",
          "name": "account",
          "type": "address"
        }
      ],
      "name": "balanceOf",
      "outputs": [
        {
          "internalType": "uint256",
          "name": "",
          "type": "uint256"
        }
      ],
      "stateMutability": "view",
      "type": "function"
    },
    {
      "inputs": [],
      "name": "decimals",
      "outputs": [
        {
          "internalType": "uint8",
          "name": "",
          "type": "uint8"
        }
      ],
      "stateMutability": "view",
      "type": "function"
    },
    {
      "inputs": [],
      "name": "mint",
      "outputs": [],
      "stateMutability": "nonpayable",
      "type": "function"
    },
    {
      "inputs": [
        {
          "internalType": "address",
          "name": "",
          "type": "address"
        }
      ],
      "name": "minted",
      "outputs": [
        {
          "internalType": "uint256",
          "name": "",
          "type": "uint256"
        }
      ],
      "stateMutability": "view",
      "type": "function"
    },
    {
      "inputs": [],
      "name": "name",
      "outputs": [
        {
          "internalType": "string",
          "name": "",
          "type": "string"
        }
      ],
      "stateMutability": "view",
      "type": "function"
    },
    {
      "inputs": [],
      "name": "symbol",
      "outputs": [
        {
          "internalType": "string",
          "name": "",
          "type": "string"
        }
      ],
      "stateMutability": "view",
      "type": "function"
    },
    {
      "inputs": [],
      "name": "totalSupply",
      "outputs": [
        {
          "internalType": "uint256",
          "name": "",
          "type": "uint256"
        }
      ],
      "stateMutability": "view",
      "type": "function"
    },
    {
      "inputs": [
        {
          "internalType": "address",
          "name": "to",
          "type": "address"
        },
        {
          "internalType": "uint256",
          "name": "value",
          "type": "uint256"
        }
      ],
      "name": "transfer",
      "outputs": [
        {
          "internalType": "bool",
          "name": "",
          "type": "bool"
        }
      ],
      "stateMutability": "nonpayable",
      "type": "function"
    },
    {
      "inputs": [
        {
          "internalType": "address",
          "name": "from",
          "type": "address"
        },
        {
          "internalType": "address",
          "name": "to",
          "type": "address"
        },
        {
          "internalType": "uint256",
          "name": "value",
          "type": "uint256"
        }
      ],
      "name": "transferFrom",
      "outputs": [
        {
          "internalType": "bool",
          "name": "",
          "type": "bool"
        }
      ],
      "stateMutability": "nonpayable",
      "type": "function"
    }
  ],
  "bytecode": "0x60806040523480156200001157600080fd5b506040518060400160405280600b81526020016a4f7261636c792044656d6f60a81b8152506040518060400160405280600481526020016344454d4f60e01b8152508160039081620000649190620002c6565b506004620000738282620002c6565b505050600062000088620000a660201b60201c565b90506200009f81683635c9adc5dea00000620000aa565b50620003ba565b3390565b6001600160a01b038216620000da5760405163ec442f0560e01b8152600060048201526024015b60405180910390fd5b620000e860008383620000ec565b5050565b6001600160a01b0383166200011b5780600260008282546200010f919062000392565b909155506200018f9050565b6001600160a01b03831660009081526020819052604090205481811015620001705760405163391434e360e21b81526001600160a01b03851660048201526024810182905260448101839052606401620000d1565b6001600160a01b03841660009081526020819052604090209082900390555b6001600160a01b038216620001ad57600280548290039055620001cc565b6001600160a01b03821660009081526020819052604090208054820190555b816001600160a01b0316836001600160a01b03167fddf252ad1be2c89b69c2b068fc378daa952ba7f163c4a11628f55a4df523b3ef836040516200021291815260200190565b60405180910390a3505050565b634e487b7160e01b600052604160045260246000fd5b600181811c908216806200024a57607f821691505b6020821081036200026b57634e487b7160e01b600052602260045260246000fd5b50919050565b601f821115620002c1576000816000526020600020601f850160051c810160208610156200029c5750805b601f850160051c820191505b81811015620002bd57828155600101620002a8565b5050505b505050565b81516001600160401b03811115620002e257620002e26200021f565b620002fa81620002f3845462000235565b8462000271565b602080601f831160018114620003325760008415620003195750858301515b600019600386901b1c1916600185901b178555620002bd565b600085815260208120601f198616915b82811015620003635788860151825594840194600190910190840162000342565b5085821015620003825787850151600019600388901b60f8161c191681555b5050505050600190811b01905550565b80820180821115620003b457634e487b7160e01b600052601160045260246000fd5b92915050565b6108fe80620003ca6000396000f3fe608060405234801561001057600080fd5b50600436106100a95760003560e01c806323b872dd1161007157806323b872dd1461012b578063313ce5671461013e57806370a082311461014d57806395d89b4114610176578063a9059cbb1461017e578063dd62ed3e1461019157600080fd5b806306fdde03146100ae578063095ea7b3146100cc5780631249c58b146100ef57806318160ddd146100f95780631e7269c51461010b575b600080fd5b6100b66101ca565b6040516100c39190610747565b60405180910390f35b6100df6100da3660046107b2565b61025c565b60405190151581526020016100c3565b6100f7610276565b005b6002545b6040519081526020016100c3565b6100fd6101193660046107dc565b60056020526000908152604090205481565b6100df6101393660046107fe565b6103e2565b604051601281526020016100c3565b6100fd61015b3660046107dc565b6001600160a01b031660009081526020819052604090205490565b6100b6610406565b6100df61018c3660046107b2565b610415565b6100fd61019f36600461083a565b6001600160a01b03918216600090815260016020908152604080832093909416825291909152205490565b6060600380546101d99061086d565b80601f01602080910402602001604051908101604052809291908181526020018280546102059061086d565b80156102525780601f1061022757610100808354040283529160200191610252565b820191906000526020600020905b81548152906001019060200180831161023557829003601f168201915b5050505050905090565b60003361026a818585610423565b60019150505b92915050565b33803b156102c35760405162461bcd60e51b815260206004820152601560248201527413db9b1e5153d054d95b99195c9cd05b1b1bddd959605a1b60448201526064015b60405180910390fd5b326001600160a01b038216146103135760405162461bcd60e51b815260206004820152601560248201527413db9b1e5153d054d95b99195c9cd05b1b1bddd959605a1b60448201526064016102ba565b3360008181526005602052604090205469021e19e0c9bab24000009061034390683635c9adc5dea00000906108a7565b11156103855760405162461bcd60e51b8152602060048201526011602482015270135a5b9d131a5b5a5d115e18d959591959607a1b60448201526064016102ba565b6001600160a01b0381166000908152600560205260409020546103b290683635c9adc5dea00000906108a7565b6001600160a01b0382166000908152600560205260409020556103de81683635c9adc5dea00000610435565b5050565b6000336103f085828561046b565b6103fb8585856104e9565b506001949350505050565b6060600480546101d99061086d565b60003361026a8185856104e9565b6104308383836001610548565b505050565b6001600160a01b03821661045f5760405163ec442f0560e01b8152600060048201526024016102ba565b6103de6000838361061d565b6001600160a01b0383811660009081526001602090815260408083209386168352929052205460001981146104e357818110156104d457604051637dc7a0d960e11b81526001600160a01b038416600482015260248101829052604481018390526064016102ba565b6104e384848484036000610548565b50505050565b6001600160a01b03831661051357604051634b637e8f60e11b8152600060048201526024016102ba565b6001600160a01b03821661053d5760405163ec442f0560e01b8152600060048201526024016102ba565b61043083838361061d565b6001600160a01b0384166105725760405163e602df0560e01b8152600060048201526024016102ba565b6001600160a01b03831661059c57604051634a1406b160e11b8152600060048201526024016102ba565b6001600160a01b03808516600090815260016020908152604080832093871683529290522082905580156104e357826001600160a01b0316846001600160a01b03167f8c5be1e5ebec7d5bd14f71427d1e84f3dd0314c0f7b2291e5b200ac8c7c3b9258460405161060f91815260200190565b60405180910390a350505050565b6001600160a01b03831661064857806002600082825461063d91906108a7565b909155506106ba9050565b6001600160a01b0383166000908152602081905260409020548181101561069b5760405163391434e360e21b81526001600160a01b038516600482015260248101829052604481018390526064016102ba565b6001600160a01b03841660009081526020819052604090209082900390555b6001600160a01b0382166106d6576002805482900390556106f5565b6001600160a01b03821660009081526020819052604090208054820190555b816001600160a01b0316836001600160a01b03167fddf252ad1be2c89b69c2b068fc378daa952ba7f163c4a11628f55a4df523b3ef8360405161073a91815260200190565b60405180910390a3505050565b60006020808352835180602085015260005b8181101561077557858101830151858201604001528201610759565b506000604082860101526040601f19601f8301168501019250505092915050565b80356001600160a01b03811681146107ad57600080fd5b919050565b600080604083850312156107c557600080fd5b6107ce83610796565b946020939093013593505050565b6000602082840312156107ee57600080fd5b6107f782610796565b9392505050565b60008060006060848603121561081357600080fd5b61081c84610796565b925061082a60208501610796565b9150604084013590509250925092565b6000806040838503121561084d57600080fd5b61085683610796565b915061086460208401610796565b90509250929050565b600181811c9082168061088157607f821691505b6020821081036108a157634e487b7160e01b600052602260045260246000fd5b50919050565b8082018082111561027057634e487b7160e01b600052601160045260246000fdfea26469706673582212204574376a21d76324ddab0dc372c3edeaa77e83282d27e1003965a38a17d4ace264736f6c63430008170033",
  "linkReferences": {},
  "deployedLinkReferences": {}
}