{
  "_format": "hh-sol-artifact-1",
  "contractName": "MentoringOraclyV1",
  "sourceName": "contracts/mentoring/MentoringOraclyV1.sol",
  "abi": [
    {
      "inputs": [],
      "stateMutability": "nonpayable",
      "type": "constructor"
    },
    {
      "inputs": [
        {
          "internalType": "address",
          "name": "target",
          "type": "address"
        }
      ],
      "name": "AddressEmptyCode",
      "type": "error"
    },
    {
      "inputs": [
        {
          "internalType": "address",
          "name": "account",
          "type": "address"
        }
      ],
      "name": "AddressInsufficientBalance",
      "type": "error"
    },
    {
      "inputs": [],
      "name": "FailedInnerCall",
      "type": "error"
    },
    {
      "inputs": [
        {
          "internalType": "address",
          "name": "owner",
          "type": "address"
        }
      ],
      "name": "OwnableInvalidOwner",
      "type": "error"
    },
    {
      "inputs": [
        {
          "internalType": "address",
          "name": "account",
          "type": "address"
        }
      ],
      "name": "OwnableUnauthorizedAccount",
      "type": "error"
    },
    {
      "inputs": [],
      "name": "ReentrancyGuardReentrantCall",
      "type": "error"
    },
    {
      "inputs": [
        {
          "internalType": "address",
          "name": "token",
          "type": "address"
        }
      ],
      "name": "SafeERC20FailedOperation",
      "type": "error"
    },
    {
      "anonymous": false,
      "inputs": [
        {
          "indexed": true,
          "internalType": "address",
          "name": "gatherer",
          "type": "address"
        }
      ],
      "name": "AuthorizedGathererSet",
      "type": "event"
    },
    {
      "anonymous": false,
      "inputs": [
        {
          "indexed": false,
          "internalType": "address",
          "name": "mentor",
          "type": "address"
        },
        {
          "indexed": false,
          "internalType": "address",
          "name": "erc20",
          "type": "address"
        },
        {
          "indexed": false,
          "internalType": "uint256",
          "name": "balance",
          "type": "uint256"
        },
        {
          "indexed": false,
          "internalType": "uint256",
          "name": "payout",
          "type": "uint256"
        }
      ],
      "name": "FATAL_EVENT_INSUFFICIENT_REWARDFUNDS",
      "type": "event"
    },
    {
      "anonymous": false,
      "inputs": [
        {
          "indexed": true,
          "internalType": "address",
          "name": "protege",
          "type": "address"
        },
        {
          "indexed": true,
          "internalType": "address",
          "name": "mentor",
          "type": "address"
        }
      ],
      "name": "JoinedMentor",
      "type": "event"
    },
    {
      "anonymous": false,
      "inputs": [
        {
          "indexed": true,
          "internalType": "address",
          "name": "mentor",
          "type": "address"
        },
        {
          "indexed": true,
          "internalType": "address",
          "name": "erc20",
          "type": "address"
        },
        {
          "indexed": false,
          "internalType": "uint256",
          "name": "payout",
          "type": "uint256"
        }
      ],
      "name": "MentorRewardPayout",
      "type": "event"
    },
    {
      "anonymous": false,
      "inputs": [
        {
          "indexed": true,
          "internalType": "address",
          "name": "protege",
          "type": "address"
        },
        {
          "indexed": true,
          "internalType": "address",
          "name": "mentor",
          "type": "address"
        },
        {
          "indexed": true,
          "internalType": "address",
          "name": "erc20",
          "type": "address"
        },
        {
          "indexed": false,
          "internalType": "uint256",
          "name": "reward",
          "type": "uint256"
        }
      ],
      "name": "MentorfundsAdded",
      "type": "event"
    },
    {
      "anonymous": false,
      "inputs": [
        {
          "indexed": true,
          "internalType": "address",
          "name": "previousOwner",
          "type": "address"
        },
        {
          "indexed": true,
          "internalType": "address",
          "name": "newOwner",
          "type": "address"
        }
      ],
      "name": "OwnershipTransferred",
      "type": "event"
    },
    {
      "anonymous": false,
      "inputs": [
        {
          "indexed": true,
          "internalType": "address",
          "name": "protege",
          "type": "address"
        },
        {
          "indexed": true,
          "internalType": "address",
          "name": "mentor",
          "type": "address"
        }
      ],
      "name": "ProtegeExpelled",
      "type": "event"
    },
    {
      "inputs": [],
      "name": "AUTHORIZED_COMMISSION_GATHERER",
      "outputs": [
        {
          "internalType": "address",
          "name": "",
          "type": "address"
        }
      ],
      "stateMutability": "view",
      "type": "function"
    },
    {
      "inputs": [],
      "name": "MENTOR_COMMISSION_PERCENTAGE",
      "outputs": [
        {
          "internalType": "uint8",
          "name": "",
          "type": "uint8"
        }
      ],
      "stateMutability": "view",
      "type": "function"
    },
    {
      "inputs": [
        {
          "internalType": "address",
          "name": "",
          "type": "address"
        }
      ],
      "name": "__FATAL_INSUFFICIENT_REWARDFUNDS_ERROR__",
      "outputs": [
        {
          "internalType": "bool",
          "name": "",
          "type": "bool"
        }
      ],
      "stateMutability": "view",
      "type": "function"
    },
    {
      "inputs": [
        {
          "internalType": "address",
          "name": "protege",
          "type": "address"
        },
        {
          "internalType": "uint256",
          "name": "amount",
          "type": "uint256"
        }
      ],
      "name": "calculateReward",
      "outputs": [
        {
          "internalType": "uint256",
          "name": "reward",
          "type": "uint256"
        }
      ],
      "stateMutability": "view",
      "type": "function"
    },
    {
      "inputs": [
        {
          "internalType": "address",
          "name": "erc20",
          "type": "address"
        }
      ],
      "name": "claimReward",
      "outputs": [],
      "stateMutability": "nonpayable",
      "type": "function"
    },
    {
      "inputs": [
        {
          "internalType": "address",
          "name": "protege",
          "type": "address"
        },
        {
          "internalType": "address",
          "name": "erc20",
          "type": "address"
        },
        {
          "internalType": "uint256",
          "name": "commission",
          "type": "uint256"
        }
      ],
      "name": "collectCommission",
      "outputs": [],
      "stateMutability": "nonpayable",
      "type": "function"
    },
    {
      "inputs": [
        {
          "internalType": "address",
          "name": "protege",
          "type": "address"
        }
      ],
      "name": "expelProtege",
      "outputs": [],
      "stateMutability": "nonpayable",
      "type": "function"
    },
    {
      "inputs": [
        {
          "internalType": "address",
          "name": "mentor",
          "type": "address"
        },
        {
          "internalType": "address",
          "name": "erc20",
          "type": "address"
        }
      ],
      "name": "getMentor",
      "outputs": [
        {
          "internalType": "address",
          "name": "mentorid",
          "type": "address"
        },
        {
          "internalType": "uint256",
          "name": "circle",
          "type": "uint256"
        },
        {
          "internalType": "uint256",
          "name": "rewards",
          "type": "uint256"
        },
        {
          "internalType": "uint256",
          "name": "payouts",
          "type": "uint256"
        },
        {
          "internalType": "uint256",
          "name": "createdAt",
          "type": "uint256"
        },
        {
          "internalType": "uint256",
          "name": "updatedAt",
          "type": "uint256"
        }
      ],
      "stateMutability": "view",
      "type": "function"
    },
    {
      "inputs": [
        {
          "internalType": "address",
          "name": "mentor",
          "type": "address"
        },
        {
          "internalType": "uint256",
          "name": "offset",
          "type": "uint256"
        }
      ],
      "name": "getMentorProteges",
      "outputs": [
        {
          "internalType": "address[]",
          "name": "proteges",
          "type": "address[]"
        },
        {
          "internalType": "uint256",
          "name": "size",
          "type": "uint256"
        }
      ],
      "stateMutability": "view",
      "type": "function"
    },
    {
      "inputs": [
        {
          "internalType": "address",
          "name": "protege",
          "type": "address"
        },
        {
          "internalType": "address",
          "name": "erc20",
          "type": "address"
        }
      ],
      "name": "getProtege",
      "outputs": [
        {
          "internalType": "address",
          "name": "protegeid",
          "type": "address"
        },
        {
          "internalType": "address",
          "name": "mentor",
          "type": "address"
        },
        {
          "internalType": "uint256",
          "name": "earned",
          "type": "uint256"
        },
        {
          "internalType": "uint256",
          "name": "earnedTotal",
          "type": "uint256"
        },
        {
          "internalType": "uint256",
          "name": "createdAt",
          "type": "uint256"
        },
        {
          "internalType": "uint256",
          "name": "updatedAt",
          "type": "uint256"
        }
      ],
      "stateMutability": "view",
      "type": "function"
    },
    {
      "inputs": [
        {
          "internalType": "address",
          "name": "protege",
          "type": "address"
        },
        {
          "internalType": "address",
          "name": "erc20",
          "type": "address"
        },
        {
          "internalType": "address",
          "name": "mentor",
          "type": "address"
        }
      ],
      "name": "getProtegeMentorEarned",
      "outputs": [
        {
          "internalType": "uint256",
          "name": "earned",
          "type": "uint256"
        }
      ],
      "stateMutability": "view",
      "type": "function"
    },
    {
      "inputs": [
        {
          "internalType": "address",
          "name": "mentor",
          "type": "address"
        }
      ],
      "name": "joinMentor",
      "outputs": [],
      "stateMutability": "nonpayable",
      "type": "function"
    },
    {
      "inputs": [],
      "name": "owner",
      "outputs": [
        {
          "internalType": "address",
          "name": "",
          "type": "address"
        }
      ],
      "stateMutability": "view",
      "type": "function"
    },
    {
      "inputs": [],
      "name": "renounceOwnership",
      "outputs": [],
      "stateMutability": "nonpayable",
      "type": "function"
    },
    {
      "inputs": [
        {
          "internalType": "address",
          "name": "gatherer",
          "type": "address"
        }
      ],
      "name": "setGatherer",
      "outputs": [],
      "stateMutability": "nonpayable",
      "type": "function"
    },
    {
      "inputs": [
        {
          "internalType": "address",
          "name": "newOwner",
          "type": "address"
        }
      ],
      "name": "transferOwnership",
      "outputs": [],
      "stateMutability": "nonpayable",
      "type": "function"
    },
    {
      "inputs": [
        {
          "internalType": "address",
          "name": "protege",
          "type": "address"
        },
        {
          "internalType": "address",
          "name": "mentor",
          "type": "address"
        }
      ],
      "name": "transferProtege",
      "outputs": [],
      "stateMutability": "nonpayable",
      "type": "function"
    }
  ],
  "bytecode": "0x6080604052600a80546001600160a01b031916905534801561002057600080fd5b50338061004757604051631e4fbdf760e01b81526000600482015260240160405180910390fd5b6100508161006c565b5060018055600a80546001600160a01b031916331790556100bc565b600080546001600160a01b038381166001600160a01b0319831681178455604051919092169283917f8be0079c531659141344cd1fd0a4f28419497f9722a3daafe3b4186f6b6457e09190a35050565b611eb5806100cb6000396000f3fe608060405234801561001057600080fd5b506004361061010b5760003560e01c8063715018a6116100a2578063b7c7483211610071578063b7c74832146102ac578063d279c191146102f7578063d967adcc1461030a578063de739f411461031d578063f2fde38b1461033057600080fd5b8063715018a6146102025780638da5cb5b1461020a578063960cd88f1461022f5780639b1352fa1461026257600080fd5b80634a569d16116100de5780634a569d161461017f5780634e54ad25146101c257806356371798146101dc57806370a6fddc146101ef57600080fd5b80630b375ae8146101105780631852e8d9146101255780633186687a1461014b57806346dfe06a1461016c575b600080fd5b61012361011e366004611bd2565b610343565b005b610138610133366004611bed565b6103b5565b6040519081526020015b60405180910390f35b61015e610159366004611bed565b6103c9565b604051610142929190611c17565b61012361017a366004611c6d565b61050b565b61013861018d366004611ca9565b6001600160a01b0392831660009081526007602090815260408083209486168352938152838220929094168152925290205490565b6101ca601981565b60405160ff9091168152602001610142565b6101236101ea366004611cec565b610a2f565b6101236101fd366004611bd2565b610aa3565b610123610afe565b6000546001600160a01b03165b6040516001600160a01b039091168152602001610142565b61025261023d366004611bd2565b60096020526000908152604090205460ff1681565b6040519015158152602001610142565b610275610270366004611cec565b610b12565b604080516001600160a01b0390971687526020870195909552938501929092526060840152608083015260a082015260c001610142565b6102bf6102ba366004611cec565b610bcb565b604080516001600160a01b039788168152969095166020870152938501929092526060840152608083015260a082015260c001610142565b610123610305366004611bd2565b610c68565b610123610318366004611bd2565b610f9c565b600a54610217906001600160a01b031681565b61012361033e366004611bd2565b61109c565b61034b6110d7565b33803b156103745760405162461bcd60e51b815260040161036b90611d16565b60405180910390fd5b326001600160a01b0382161461039c5760405162461bcd60e51b815260040161036b90611d16565b336103a78382611101565b50506103b260018055565b50565b60006103c183836113a8565b949350505050565b604080516000808252602080830184526001600160a01b0386168252600490529182209091906103f8906113ea565b9050801561050457808310156105045760006104148483611d71565b90506000601482111561042f5761042c601483611d71565b90505b600061043b8284611d71565b90508067ffffffffffffffff81111561045657610456611d45565b60405190808252806020026020018201604052801561047f578160200160208202803683370190505b50945060005b8181146104ff576104c38161049b600187611d71565b6104a59190611d71565b6001600160a01b038a166000908152600460205260409020906113fa565b8682815181106104d5576104d5611d84565b6001600160a01b0390921660209283029190910190910152806104f781611d9a565b915050610485565b505050505b9250929050565b6105136110d7565b600a546001600160a01b0316336001600160a01b03161461056d5760405162461bcd60e51b815260206004820152601460248201527352656a656374556e6b6e6f776e4761746865726560601b604482015260640161036b565b806000036105bd5760405162461bcd60e51b815260206004820152601760248201527f43616e6e6f74436f6c6c6563745a65726f416d6f756e74000000000000000000604482015260640161036b565b6001600160a01b0383166106135760405162461bcd60e51b815260206004820152601c60248201527f43616e6e6f74436f6c6c65637446726f6d5a65726f50726f7465676500000000604482015260640161036b565b33806106615760405162461bcd60e51b815260206004820152601d60248201527f43616e6e6f74436f6c6c65637446726f6d5a65726f4761746865726572000000604482015260640161036b565b6001600160a01b03831660009081526009602052604090205460ff16156106d95760405162461bcd60e51b815260206004820152602660248201527f43616e6e6f74436f6c6c6563745265776172644552433230546f6b656e4973426044820152651b1bd8dad95960d21b606482015260840161036b565b6000806106e686856113a8565b91509150816001600160a01b0316866001600160a01b03160361074b5760405162461bcd60e51b815260206004820152601c60248201527f43616e6e6f74436f6c6c65637446726f6d5a65726f50726f7465676500000000604482015260640161036b565b8015610a1e576001600160a01b03808316600090815260056020908152604080832093891683529290522054610782908290611db3565b6001600160a01b0380841660008181526005602090815260408083208b861680855290835281842096909655938b1682526007815283822094825293845282812091815292529020546107d6908290611db3565b6001600160a01b0380881660008181526007602090815260408083208b861680855290835281842095891684529482528083209590955591815260088252838120928152919052205461082a908290611db3565b6001600160a01b0387811660009081526008602090815260408083208a851680855292529182902093909355516370a0823160e01b815290851660048201528291906370a0823190602401602060405180830381865afa158015610892573d6000803e3d6000fd5b505050506040513d601f19601f820116820180604052508101906108b69190611dc6565b10156108f85760405162461bcd60e51b8152602060048201526011602482015270496e73756666696369656e7446756e647360781b604482015260640161036b565b604051636eb1769f60e11b81526001600160a01b03848116600483015230602483015282919087169063dd62ed3e90604401602060405180830381865afa158015610947573d6000803e3d6000fd5b505050506040513d601f19601f8201168201806040525081019061096b9190611dc6565b10156109b15760405162461bcd60e51b8152602060048201526015602482015274496e73756666696369656e74416c6c6f77616e636560581b604482015260640161036b565b6109c66001600160a01b03861684308461140d565b846001600160a01b0316826001600160a01b0316876001600160a01b03167fb6f05f49a87c34e84f83b47262559c7e3c652295b9a97b04feaa6c6becdbab0784604051610a1591815260200190565b60405180910390a45b505050610a2a60018055565b505050565b610a376110d7565b33803b15610a575760405162461bcd60e51b815260040161036b90611d16565b326001600160a01b03821614610a7f5760405162461bcd60e51b815260040161036b90611d16565b33610a8a8482611101565b610a94838561147a565b5050610a9f60018055565b5050565b610aab6110d7565b33803b15610acb5760405162461bcd60e51b815260040161036b90611d16565b326001600160a01b03821614610af35760405162461bcd60e51b815260040161036b90611d16565b336103a7838261147a565b610b06611772565b610b10600061179f565b565b6001600160a01b0382166000908152600260208190526040822082918291829182918291015415610b41578795505b6001600160a01b0386166000908152600460205260409020610b62906113ea565b6001600160a01b038781166000818152600560209081526040808320948d1680845294825280832054848452600683528184209584529482528083205493835260029182905290912090810154939850919650945090925060035b015490509295509295509295565b6001600160a01b0382166000908152600260205260408120548190819081908190819015610bf7578795505b6001600160a01b03868116600081815260036020908152604080832054600783528184208d8716808652908452828520919096168085529083528184205485855260088452828520968552958352818420549484526002909252909120805491985092965090945092506001610bbd565b610c706110d7565b33803b15610c905760405162461bcd60e51b815260040161036b90611d16565b326001600160a01b03821614610cb85760405162461bcd60e51b815260040161036b90611d16565b6001600160a01b038216610d045760405162461bcd60e51b8152602060048201526013602482015272496e76616c696445726332304164647265737360681b604482015260640161036b565b3360008181526006602090815260408083206001600160a01b03871680855290835281842054858552600584528285209185529252822054610d469190611d71565b905080600003610d8c5760405162461bcd60e51b81526020600482015260116024820152704e6f7468696e67546f576974686472617760781b604482015260640161036b565b6040516370a0823160e01b815230600482015281906001600160a01b038616906370a0823190602401602060405180830381865afa158015610dd2573d6000803e3d6000fd5b505050506040513d601f19601f82011682018060405250810190610df69190611dc6565b1015610eda576001600160a01b03841660008181526009602052604090819020805460ff19166001179055516370a0823160e01b81523060048201527fa4d46161a7826c3e661c0744341c48543b4c0990026c295ed3787946d5416e489184918791906370a0823190602401602060405180830381865afa158015610e7f573d6000803e3d6000fd5b505050506040513d601f19601f82011682018060405250810190610ea39190611dc6565b604080516001600160a01b039485168152939092166020840152908201526060810183905260800160405180910390a15050610f92565b6001600160a01b03808316600090815260066020908152604080832093881683529290522054610f0b908290611db3565b6001600160a01b03808416600090815260066020908152604080832093891680845293909152902091909155610f429083836117ef565b836001600160a01b0316826001600160a01b03167f8e1b653f3541e2f93b192fb8ea87a5eea12a67c6b7f0ba861d8b28bb101b334983604051610f8791815260200190565b60405180910390a350505b506103b260018055565b610fa4611772565b6001600160a01b038116610ffa5760405162461bcd60e51b815260206004820152601a60248201527f4761746865726543616e6e6f7442655a65726f41646472657373000000000000604482015260640161036b565b306001600160a01b038216036110525760405162461bcd60e51b815260206004820152601a60248201527f4761746865726543616e6e6f74426553656c6641646472657373000000000000604482015260640161036b565b600a80546001600160a01b0319166001600160a01b0383169081179091556040517fbf372a0e7288b3d8ece06fe039fff4231f58bb3986b956f90f4f1e9ba391a1bc90600090a250565b6110a4611772565b6001600160a01b0381166110ce57604051631e4fbdf760e01b81526000600482015260240161036b565b6103b28161179f565b6002600154036110fa57604051633ee5aeb560e01b815260040160405180910390fd5b6002600155565b6001600160a01b0382166111575760405162461bcd60e51b815260206004820152601a60248201527f50726f746567654164647265737343616e6e6f7442655a65726f000000000000604482015260640161036b565b6001600160a01b0381166111a95760405162461bcd60e51b81526020600482015260196024820152784d656e746f724164647265737343616e6e6f7442655a65726f60381b604482015260640161036b565b6001600160a01b038281166000908152600360205260409020548116908216146112155760405162461bcd60e51b815260206004820152601d60248201527f43616e6e6f7452656d6f7665556e6d656e746f72656450726f74656765000000604482015260640161036b565b6001600160a01b03811660009081526004602052604090206112379083611820565b6112835760405162461bcd60e51b815260206004820152601d60248201527f43616e6e6f7452656d6f7665556e6d656e746f72656450726f74656765000000604482015260640161036b565b6001600160a01b038216600090815260036020908152604080832080546001600160a01b0319169055600290915281205490036112d6576001600160a01b03821660009081526002602052604090204290555b6001600160a01b03821660009081526002602052604090204290600101556001600160a01b03811660009081526004602052604090206113169083611842565b506001600160a01b0381166000908152600260208190526040822001549003611359576001600160a01b0381166000908152600260208190526040909120429101555b6001600160a01b03818116600081815260026020526040808220426003909101555191928516917f461f5b67b9d5b57639a0bc01dba14bef197d0fd4ba4592aa7100d0b0a82ee77c9190a35050565b6001600160a01b03808316600090815260036020526040812054909116908115610504576113e16113da601985611ddf565b6064611857565b90509250929050565b60006113f4825490565b92915050565b600061140683836118a7565b9392505050565b6040516001600160a01b0384811660248301528381166044830152606482018390526114749186918216906323b872dd906084015b604051602081830303815290604052915060e01b6020820180516001600160e01b0383818316178352505050506118d1565b50505050565b6001600160a01b0382166114cc5760405162461bcd60e51b81526020600482015260196024820152784d656e746f724164647265737343616e6e6f7442655a65726f60381b604482015260640161036b565b6001600160a01b0381166115225760405162461bcd60e51b815260206004820152601a60248201527f50726f746567654164647265737343616e6e6f7442655a65726f000000000000604482015260640161036b565b6001600160a01b0381811660009081526003602052604090205416156115805760405162461bcd60e51b815260206004820152601360248201527243616e6e6f7452656a6f696e50726f7465676560681b604482015260640161036b565b806001600160a01b0316826001600160a01b0316036115d45760405162461bcd60e51b815260206004820152601060248201526f21b0b73737ba2537b4b72a37a9b2b63360811b604482015260640161036b565b6001600160a01b03811660009081526004602052604090206115f5906113ea565b156116425760405162461bcd60e51b815260206004820152601960248201527f4d656e746f7243616e6e6f744265636f6d6550726f7465676500000000000000604482015260640161036b565b6001600160a01b03818116600090815260036020908152604080832080546001600160a01b031916948716949094179093556002905290812001546000036116a0576001600160a01b03811660009081526002602052604090204290555b6001600160a01b03811660009081526002602052604090204290600101556001600160a01b03821660009081526004602052604090206116e09082611934565b506001600160a01b0382166000908152600260208190526040822001549003611723576001600160a01b0382166000908152600260208190526040909120429101555b6001600160a01b03828116600081815260026020526040808220426003909101555191928416917f43bc66d04a9bb67761dd06888e194a5c96154107a8dc6a065402ddcbfa0f94989190a35050565b6000546001600160a01b03163314610b105760405163118cdaa760e01b815233600482015260240161036b565b600080546001600160a01b038381166001600160a01b0319831681178455604051919092169283917f8be0079c531659141344cd1fd0a4f28419497f9722a3daafe3b4186f6b6457e09190a35050565b6040516001600160a01b03838116602483015260448201839052610a2a91859182169063a9059cbb90606401611442565b6001600160a01b03811660009081526001830160205260408120541515611406565b6000611406836001600160a01b038416611949565b6000816000036118725761186b8284611df6565b90506113f4565b821561189e5781611884600185611d71565b61188e9190611df6565b611899906001611db3565b611406565b50600092915050565b60008260000182815481106118be576118be611d84565b9060005260206000200154905092915050565b60006118e66001600160a01b03841683611a3c565b9050805160001415801561190b5750808060200190518101906119099190611e18565b155b15610a2a57604051635274afe760e01b81526001600160a01b038416600482015260240161036b565b6000611406836001600160a01b038416611a4a565b60008181526001830160205260408120548015611a3257600061196d600183611d71565b855490915060009061198190600190611d71565b90508082146119e65760008660000182815481106119a1576119a1611d84565b90600052602060002001549050808760000184815481106119c4576119c4611d84565b6000918252602080832090910192909255918252600188019052604090208390555b85548690806119f7576119f7611e3a565b6001900381819060005260206000200160009055905585600101600086815260200190815260200160002060009055600193505050506113f4565b60009150506113f4565b606061140683836000611a99565b6000818152600183016020526040812054611a91575081546001818101845560008481526020808220909301849055845484825282860190935260409020919091556113f4565b5060006113f4565b606081471015611abe5760405163cd78605960e01b815230600482015260240161036b565b600080856001600160a01b03168486604051611ada9190611e50565b60006040518083038185875af1925050503d8060008114611b17576040519150601f19603f3d011682016040523d82523d6000602084013e611b1c565b606091505b5091509150611b2c868383611b36565b9695505050505050565b606082611b465761189982611b8d565b8151158015611b5d57506001600160a01b0384163b155b15611b8657604051639996b31560e01b81526001600160a01b038516600482015260240161036b565b5080611406565b805115611b9d5780518082602001fd5b604051630a12f52160e11b815260040160405180910390fd5b80356001600160a01b0381168114611bcd57600080fd5b919050565b600060208284031215611be457600080fd5b61140682611bb6565b60008060408385031215611c0057600080fd5b611c0983611bb6565b946020939093013593505050565b604080825283519082018190526000906020906060840190828701845b82811015611c595781516001600160a01b031684529284019290840190600101611c34565b505050602093909301939093525092915050565b600080600060608486031215611c8257600080fd5b611c8b84611bb6565b9250611c9960208501611bb6565b9150604084013590509250925092565b600080600060608486031215611cbe57600080fd5b611cc784611bb6565b9250611cd560208501611bb6565b9150611ce360408501611bb6565b90509250925092565b60008060408385031215611cff57600080fd5b611d0883611bb6565b91506113e160208401611bb6565b60208082526015908201527413db9b1e5153d054d95b99195c9cd05b1b1bddd959605a1b604082015260600190565b634e487b7160e01b600052604160045260246000fd5b634e487b7160e01b600052601160045260246000fd5b818103818111156113f4576113f4611d5b565b634e487b7160e01b600052603260045260246000fd5b600060018201611dac57611dac611d5b565b5060010190565b808201808211156113f4576113f4611d5b565b600060208284031215611dd857600080fd5b5051919050565b80820281158282048414176113f4576113f4611d5b565b600082611e1357634e487b7160e01b600052601260045260246000fd5b500490565b600060208284031215611e2a57600080fd5b8151801515811461140657600080fd5b634e487b7160e01b600052603160045260246000fd5b6000825160005b81811015611e715760208186018101518583015201611e57565b50600092019182525091905056fea2646970667358221220f6ee4008c933b4b2bae2be3114bf5dddac96f8f1c66091835dc338d05ffe6c7564736f6c63430008170033",
  "linkReferences": {},
  "deployedLinkReferences": {}
}