{
  "_format": "hh-sol-artifact-1",
  "contractName": "MetaOraclyV1",
  "sourceName": "contracts/predicting/MetaOraclyV1.sol",
  "abi": [
    {
      "inputs": [],
      "stateMutability": "nonpayable",
      "type": "constructor"
    },
    {
      "inputs": [
        {
          "internalType": "address",
          "name": "owner",
          "type": "address"
        }
      ],
      "name": "OwnableInvalidOwner",
      "type": "error"
    },
    {
      "inputs": [
        {
          "internalType": "address",
          "name": "account",
          "type": "address"
        }
      ],
      "name": "OwnableUnauthorizedAccount",
      "type": "error"
    },
    {
      "anonymous": false,
      "inputs": [
        {
          "indexed": true,
          "internalType": "bytes32",
          "name": "gameid",
          "type": "bytes32"
        },
        {
          "indexed": false,
          "internalType": "address",
          "name": "pricefeed",
          "type": "address"
        },
        {
          "indexed": false,
          "internalType": "address",
          "name": "erc20",
          "type": "address"
        },
        {
          "indexed": false,
          "internalType": "uint16",
          "name": "version",
          "type": "uint16"
        },
        {
          "indexed": false,
          "internalType": "uint256",
          "name": "schedule",
          "type": "uint256"
        },
        {
          "indexed": false,
          "internalType": "uint256",
          "name": "positioning",
          "type": "uint256"
        },
        {
          "indexed": false,
          "internalType": "uint256",
          "name": "expiration",
          "type": "uint256"
        },
        {
          "indexed": false,
          "internalType": "uint256",
          "name": "minDeposit",
          "type": "uint256"
        }
      ],
      "name": "GameAdded",
      "type": "event"
    },
    {
      "anonymous": false,
      "inputs": [
        {
          "indexed": true,
          "internalType": "bytes32",
          "name": "gameid",
          "type": "bytes32"
        }
      ],
      "name": "GameBlocked",
      "type": "event"
    },
    {
      "anonymous": false,
      "inputs": [
        {
          "indexed": true,
          "internalType": "bytes32",
          "name": "gameid",
          "type": "bytes32"
        }
      ],
      "name": "GameUnblocked",
      "type": "event"
    },
    {
      "anonymous": false,
      "inputs": [
        {
          "indexed": true,
          "internalType": "address",
          "name": "previousOwner",
          "type": "address"
        },
        {
          "indexed": true,
          "internalType": "address",
          "name": "newOwner",
          "type": "address"
        }
      ],
      "name": "OwnershipTransferred",
      "type": "event"
    },
    {
      "inputs": [
        {
          "internalType": "address",
          "name": "pricefeed",
          "type": "address"
        },
        {
          "internalType": "address",
          "name": "erc20",
          "type": "address"
        },
        {
          "internalType": "uint16",
          "name": "version",
          "type": "uint16"
        },
        {
          "internalType": "uint256",
          "name": "schedule",
          "type": "uint256"
        },
        {
          "internalType": "uint256",
          "name": "positioning",
          "type": "uint256"
        },
        {
          "internalType": "uint256",
          "name": "expiration",
          "type": "uint256"
        },
        {
          "internalType": "uint256",
          "name": "minDeposit",
          "type": "uint256"
        }
      ],
      "name": "addGame",
      "outputs": [],
      "stateMutability": "nonpayable",
      "type": "function"
    },
    {
      "inputs": [
        {
          "internalType": "bytes32",
          "name": "gameid",
          "type": "bytes32"
        }
      ],
      "name": "blockGame",
      "outputs": [],
      "stateMutability": "nonpayable",
      "type": "function"
    },
    {
      "inputs": [
        {
          "internalType": "address",
          "name": "erc20",
          "type": "address"
        },
        {
          "internalType": "uint256",
          "name": "offset",
          "type": "uint256"
        }
      ],
      "name": "getActiveGames",
      "outputs": [
        {
          "components": [
            {
              "internalType": "bytes32",
              "name": "gameid",
              "type": "bytes32"
            },
            {
              "internalType": "address",
              "name": "pricefeed",
              "type": "address"
            },
            {
              "internalType": "address",
              "name": "erc20",
              "type": "address"
            },
            {
              "internalType": "uint16",
              "name": "version",
              "type": "uint16"
            },
            {
              "internalType": "uint256",
              "name": "schedule",
              "type": "uint256"
            },
            {
              "internalType": "uint256",
              "name": "positioning",
              "type": "uint256"
            },
            {
              "internalType": "uint256",
              "name": "expiration",
              "type": "uint256"
            },
            {
              "internalType": "uint256",
              "name": "minDeposit",
              "type": "uint256"
            },
            {
              "internalType": "bool",
              "name": "blocked",
              "type": "bool"
            }
          ],
          "internalType": "struct Game[]",
          "name": "games",
          "type": "tuple[]"
        },
        {
          "internalType": "uint256",
          "name": "size",
          "type": "uint256"
        }
      ],
      "stateMutability": "view",
      "type": "function"
    },
    {
      "inputs": [
        {
          "internalType": "bytes32",
          "name": "gameid",
          "type": "bytes32"
        }
      ],
      "name": "getGame",
      "outputs": [
        {
          "components": [
            {
              "internalType": "bytes32",
              "name": "gameid",
              "type": "bytes32"
            },
            {
              "internalType": "address",
              "name": "pricefeed",
              "type": "address"
            },
            {
              "internalType": "address",
              "name": "erc20",
              "type": "address"
            },
            {
              "internalType": "uint16",
              "name": "version",
              "type": "uint16"
            },
            {
              "internalType": "uint256",
              "name": "schedule",
              "type": "uint256"
            },
            {
              "internalType": "uint256",
              "name": "positioning",
              "type": "uint256"
            },
            {
              "internalType": "uint256",
              "name": "expiration",
              "type": "uint256"
            },
            {
              "internalType": "uint256",
              "name": "minDeposit",
              "type": "uint256"
            },
            {
              "internalType": "bool",
              "name": "blocked",
              "type": "bool"
            }
          ],
          "internalType": "struct Game",
          "name": "game",
          "type": "tuple"
        }
      ],
      "stateMutability": "view",
      "type": "function"
    },
    {
      "inputs": [],
      "name": "owner",
      "outputs": [
        {
          "internalType": "address",
          "name": "",
          "type": "address"
        }
      ],
      "stateMutability": "view",
      "type": "function"
    },
    {
      "inputs": [],
      "name": "renounceOwnership",
      "outputs": [],
      "stateMutability": "nonpayable",
      "type": "function"
    },
    {
      "inputs": [
        {
          "internalType": "address",
          "name": "newOwner",
          "type": "address"
        }
      ],
      "name": "transferOwnership",
      "outputs": [],
      "stateMutability": "nonpayable",
      "type": "function"
    },
    {
      "inputs": [
        {
          "internalType": "bytes32",
          "name": "gameid",
          "type": "bytes32"
        }
      ],
      "name": "unblockGame",
      "outputs": [],
      "stateMutability": "nonpayable",
      "type": "function"
    }
  ],
  "bytecode": "0x608060405234801561001057600080fd5b50338061003757604051631e4fbdf760e01b81526000600482015260240160405180910390fd5b61004081610046565b50610096565b600080546001600160a01b038381166001600160a01b0319831681178455604051919092169283917f8be0079c531659141344cd1fd0a4f28419497f9722a3daafe3b4186f6b6457e09190a35050565b6111c3806100a56000396000f3fe608060405234801561001057600080fd5b50600436106100885760003560e01c806373931bbf1161005b57806373931bbf146100e757806373e4137f146101075780638da5cb5b1461011a578063f2fde38b1461013557600080fd5b8063487814301461008d57806364bbf1e9146100a25780636582c8f8146100cc578063715018a6146100df575b600080fd5b6100a061009b366004610edc565b610148565b005b6100b56100b0366004610f11565b610270565b6040516100c3929190610fb1565b60405180910390f35b6100a06100da366004611009565b610477565b6100a0610a66565b6100fa6100f5366004610edc565b610a7a565b6040516100c3919061107a565b6100a0610115366004610edc565b610b13565b6000546040516001600160a01b0390911681526020016100c3565b6100a0610143366004611089565b610c32565b610150610c70565b600081815260016020526040812080549091036101b45760405162461bcd60e51b815260206004820152601a60248201527f43616e6e6f74426c6f636b47616d65446f4e6f7445786973747300000000000060448201526064015b60405180910390fd5b600781015460ff16156102095760405162461bcd60e51b815260206004820152601f60248201527f43616e6e6f74426c6f636b47616d654973416c7265616479426c6f636b65640060448201526064016101ab565b60078101805460ff191660011790556002808201546001600160a01b03166000908152602091909152604090206102409083610c9d565b5060405182907f162850a0b1583acaef130779672bd48ce14883e9e70b86ed3880f0f85ce1623e90600090a25050565b6040805160008082526020820190925260609190816102a5565b610292610e90565b81526020019060019003908161028a5790505b506001600160a01b03851660009081526002602052604090209092506102ca90610cb2565b9050801561047057808310156104705760006102e684836110d0565b905060006014821115610301576102fe6014836110d0565b90505b600061030d82846110d0565b90508067ffffffffffffffff811115610328576103286110a4565b60405190808252806020026020018201604052801561036157816020015b61034e610e90565b8152602001906001900390816103465790505b50945060005b81811461046b5760006103a78261037f6001886110d0565b61038991906110d0565b6001600160a01b038b16600090815260026020526040902090610cbc565b60008181526001602081815260409283902083516101208101855281548152928101546001600160a01b0390811692840192909252600281015491821693830193909352600160a01b900461ffff16606082015260038201546080820152600482015460a0820152600582015460c0820152600682015460e082015260079091015460ff16151561010082015288519192509088908490811061044c5761044c6110e3565b60200260200101819052508180610462906110f9565b92505050610367565b505050505b9250929050565b61047f610c70565b603c8410156104d05760405162461bcd60e51b815260206004820152601d60248201527f43616e6e6f7441646447616d655363686564756c65546f6f53686f727400000060448201526064016101ab565b601e8310156105215760405162461bcd60e51b815260206004820181905260248201527f43616e6e6f7441646447616d65506f736974696f6e696e67546f6f53686f727460448201526064016101ab565b61052c600285611112565b83111561057b5760405162461bcd60e51b815260206004820181905260248201527f43616e6e6f7441646447616d65506f736974696f6e696e67546f6f4c6172676560448201526064016101ab565b610e108210156105cd5760405162461bcd60e51b815260206004820152601f60248201527f43616e6e6f7441646447616d6545787069726174696f6e546f6f53686f72740060448201526064016101ab565b62093a808211156106205760405162461bcd60e51b815260206004820152601f60248201527f43616e6e6f7441646447616d6545787069726174696f6e546f6f4c617267650060448201526064016101ab565b806000036106705760405162461bcd60e51b815260206004820152601b60248201527f43616e6e6f7441646447616d654d696e4465706f7369745a65726f000000000060448201526064016101ab565b8461ffff166000036106c45760405162461bcd60e51b815260206004820152601860248201527f43616e6e6f7441646447616d6556657273696f6e5a65726f000000000000000060448201526064016101ab565b866001600160a01b031663313ce5676040518163ffffffff1660e01b8152600401602060405180830381865afa158015610702573d6000803e3d6000fd5b505050506040513d601f19601f820116820180604052508101906107269190611134565b60ff166000036107845760405162461bcd60e51b815260206004820152602360248201527f43616e6e6f7441646447616d6557697468496e76616c6964466565644164647260448201526265737360e81b60648201526084016101ab565b856001600160a01b03166318160ddd6040518163ffffffff1660e01b8152600401602060405180830381865afa1580156107c2573d6000803e3d6000fd5b505050506040513d601f19601f820116820180604052508101906107e6919061115e565b6000036108475760405162461bcd60e51b815260206004820152602960248201527f43616e6e6f7441646447616d654552433230546f74616c537570706c7943616e6044820152686e6f7442655a65726f60b81b60648201526084016101ab565b604080516001600160a01b03808a16602083015288169181019190915261ffff861660608201526080810185905260a0810184905260009060c00160408051601f19818403018152918152815160209283012060008181526001909352912054909150156108f75760405162461bcd60e51b815260206004820152601a60248201527f43616e6e6f7441646447616d65416c726561647945786973747300000000000060448201526064016101ab565b60408051610120810182528281526001600160a01b038a811660208084019182528b831684860181815261ffff8d811660608801908152608088018e815260a089018e815260c08a018e815260e08b018e815260006101008d018181528f82526001808c528f83209e518f559b519b8e0180546001600160a01b0319169c8e169c909c17909b5596516002808e018054975192909d166001600160b01b031990971696909617600160a01b919097160295909517909955905160038a01555160048901559551600588015551600687015592516007909501805460ff1916951515959095179094559281529152206109ef9082610cc8565b50604080516001600160a01b038a811682528916602082015261ffff881681830152606081018790526080810186905260a0810185905260c08101849052905182917f12cc98adfd44dca1c1cd035e4c25b10a75b0ec1b9906805109fafa311df4b5ed919081900360e00190a25050505050505050565b610a6e610c70565b610a786000610cd4565b565b610a82610e90565b5060009081526001602081815260409283902083516101208101855281548152928101546001600160a01b0390811692840192909252600281015491821693830193909352600160a01b900461ffff16606082015260038201546080820152600482015460a0820152600582015460c0820152600682015460e082015260079091015460ff16151561010082015290565b610b1b610c70565b60008181526001602052604081208054909103610b7a5760405162461bcd60e51b815260206004820152601c60248201527f43616e6e6f74556e626c6f636b47616d65446f4e6f744578697374730000000060448201526064016101ab565b600781015460ff16610bce5760405162461bcd60e51b815260206004820152601d60248201527f43616e6e6f74556e626c6f636b47616d6549734e6f74426c6f636b656400000060448201526064016101ab565b60078101805460ff191690556002808201546001600160a01b0316600090815260209190915260409020610c029083610cc8565b5060405182907fb4482bd4dd0ce78c65ede86d654d76dca45d21dec7c9a4a53fb5ddaa03ec288a90600090a25050565b610c3a610c70565b6001600160a01b038116610c6457604051631e4fbdf760e01b8152600060048201526024016101ab565b610c6d81610cd4565b50565b6000546001600160a01b03163314610a785760405163118cdaa760e01b81523360048201526024016101ab565b6000610ca98383610d24565b90505b92915050565b6000610cac825490565b6000610ca98383610e17565b6000610ca98383610e41565b600080546001600160a01b038381166001600160a01b0319831681178455604051919092169283917f8be0079c531659141344cd1fd0a4f28419497f9722a3daafe3b4186f6b6457e09190a35050565b60008181526001830160205260408120548015610e0d576000610d486001836110d0565b8554909150600090610d5c906001906110d0565b9050808214610dc1576000866000018281548110610d7c57610d7c6110e3565b9060005260206000200154905080876000018481548110610d9f57610d9f6110e3565b6000918252602080832090910192909255918252600188019052604090208390555b8554869080610dd257610dd2611177565b600190038181906000526020600020016000905590558560010160008681526020019081526020016000206000905560019350505050610cac565b6000915050610cac565b6000826000018281548110610e2e57610e2e6110e3565b9060005260206000200154905092915050565b6000818152600183016020526040812054610e8857508154600181810184556000848152602080822090930184905584548482528286019093526040902091909155610cac565b506000610cac565b6040805161012081018252600080825260208201819052918101829052606081018290526080810182905260a0810182905260c0810182905260e0810182905261010081019190915290565b600060208284031215610eee57600080fd5b5035919050565b80356001600160a01b0381168114610f0c57600080fd5b919050565b60008060408385031215610f2457600080fd5b610f2d83610ef5565b946020939093013593505050565b80518252602081015160018060a01b038082166020850152806040840151166040850152505061ffff60608201511660608301526080810151608083015260a081015160a083015260c081015160c083015260e081015160e083015261010080820151610fab8285018215159052565b50505050565b604080825283519082018190526000906020906060840190828701845b82811015610ff557610fe1848351610f3b565b610120939093019290840190600101610fce565b505050602093909301939093525092915050565b600080600080600080600060e0888a03121561102457600080fd5b61102d88610ef5565b965061103b60208901610ef5565b9550604088013561ffff8116811461105257600080fd5b969995985095966060810135965060808101359560a0820135955060c0909101359350915050565b6101208101610cac8284610f3b565b60006020828403121561109b57600080fd5b610ca982610ef5565b634e487b7160e01b600052604160045260246000fd5b634e487b7160e01b600052601160045260246000fd5b81810381811115610cac57610cac6110ba565b634e487b7160e01b600052603260045260246000fd5b60006001820161110b5761110b6110ba565b5060010190565b60008261112f57634e487b7160e01b600052601260045260246000fd5b500490565b60006020828403121561114657600080fd5b815160ff8116811461115757600080fd5b9392505050565b60006020828403121561117057600080fd5b5051919050565b634e487b7160e01b600052603160045260246000fdfea2646970667358221220983820e4e514c8d44f72a1f7587359f950c04ca1ebac07a16a299257e9fb044264736f6c63430008170033",
  "linkReferences": {},
  "deployedLinkReferences": {}
}