{
  "_format": "hh-sol-artifact-1",
  "contractName": "OraclyV1",
  "sourceName": "contracts/predicting/OraclyV1.sol",
  "abi": [
    {
      "inputs": [
        {
          "internalType": "address",
          "name": "distributorEOA_address",
          "type": "address"
        },
        {
          "internalType": "address",
          "name": "stakingContract_address",
          "type": "address"
        },
        {
          "internalType": "address",
          "name": "mentoringContract_address",
          "type": "address"
        },
        {
          "internalType": "address",
          "name": "metaoraclyContract_address",
          "type": "address"
        }
      ],
      "stateMutability": "nonpayable",
      "type": "constructor"
    },
    {
      "inputs": [
        {
          "internalType": "address",
          "name": "target",
          "type": "address"
        }
      ],
      "name": "AddressEmptyCode",
      "type": "error"
    },
    {
      "inputs": [
        {
          "internalType": "address",
          "name": "account",
          "type": "address"
        }
      ],
      "name": "AddressInsufficientBalance",
      "type": "error"
    },
    {
      "inputs": [],
      "name": "FailedInnerCall",
      "type": "error"
    },
    {
      "inputs": [],
      "name": "ReentrancyGuardReentrantCall",
      "type": "error"
    },
    {
      "inputs": [
        {
          "internalType": "address",
          "name": "token",
          "type": "address"
        }
      ],
      "name": "SafeERC20FailedOperation",
      "type": "error"
    },
    {
      "anonymous": false,
      "inputs": [
        {
          "indexed": false,
          "internalType": "address",
          "name": "bettor",
          "type": "address"
        },
        {
          "indexed": false,
          "internalType": "address",
          "name": "erc20",
          "type": "address"
        },
        {
          "indexed": false,
          "internalType": "uint256",
          "name": "balance",
          "type": "uint256"
        },
        {
          "indexed": false,
          "internalType": "uint256",
          "name": "payout",
          "type": "uint256"
        },
        {
          "indexed": false,
          "internalType": "uint256",
          "name": "commission",
          "type": "uint256"
        }
      ],
      "name": "FATAL_EVENT_INSUFFICIENT_PRIZEPOOL",
      "type": "event"
    },
    {
      "anonymous": false,
      "inputs": [
        {
          "indexed": false,
          "internalType": "bytes32",
          "name": "predictionid",
          "type": "bytes32"
        },
        {
          "indexed": false,
          "internalType": "uint256",
          "name": "deposit",
          "type": "uint256"
        }
      ],
      "name": "IncreasePredictionDeposit",
      "type": "event"
    },
    {
      "anonymous": false,
      "inputs": [
        {
          "indexed": false,
          "internalType": "address",
          "name": "distributor",
          "type": "address"
        },
        {
          "indexed": false,
          "internalType": "address",
          "name": "bettor",
          "type": "address"
        },
        {
          "indexed": false,
          "internalType": "address",
          "name": "erc20",
          "type": "address"
        },
        {
          "indexed": false,
          "internalType": "uint256",
          "name": "amount",
          "type": "uint256"
        }
      ],
      "name": "MentorsRewardDistributedViaContract",
      "type": "event"
    },
    {
      "anonymous": false,
      "inputs": [
        {
          "indexed": false,
          "internalType": "address",
          "name": "distributor",
          "type": "address"
        },
        {
          "indexed": false,
          "internalType": "address",
          "name": "bettor",
          "type": "address"
        },
        {
          "indexed": false,
          "internalType": "address",
          "name": "erc20",
          "type": "address"
        },
        {
          "indexed": false,
          "internalType": "uint256",
          "name": "amount",
          "type": "uint256"
        }
      ],
      "name": "MentorsRewardDistributedViaEOA",
      "type": "event"
    },
    {
      "anonymous": false,
      "inputs": [
        {
          "indexed": false,
          "internalType": "bytes32",
          "name": "predictionid",
          "type": "bytes32"
        },
        {
          "indexed": false,
          "internalType": "address",
          "name": "bettor",
          "type": "address"
        },
        {
          "indexed": false,
          "internalType": "address",
          "name": "erc20",
          "type": "address"
        },
        {
          "indexed": false,
          "internalType": "uint256",
          "name": "payout",
          "type": "uint256"
        },
        {
          "indexed": false,
          "internalType": "uint256",
          "name": "commission",
          "type": "uint256"
        }
      ],
      "name": "PredictionClaimed",
      "type": "event"
    },
    {
      "anonymous": false,
      "inputs": [
        {
          "indexed": true,
          "internalType": "bytes32",
          "name": "predictionid",
          "type": "bytes32"
        },
        {
          "indexed": false,
          "internalType": "bytes32",
          "name": "roundid",
          "type": "bytes32"
        },
        {
          "indexed": false,
          "internalType": "address",
          "name": "bettor",
          "type": "address"
        },
        {
          "indexed": false,
          "internalType": "uint8",
          "name": "position",
          "type": "uint8"
        },
        {
          "indexed": false,
          "internalType": "uint256",
          "name": "createdAt",
          "type": "uint256"
        },
        {
          "indexed": false,
          "internalType": "address",
          "name": "erc20",
          "type": "address"
        },
        {
          "indexed": false,
          "internalType": "bytes32",
          "name": "gameid",
          "type": "bytes32"
        }
      ],
      "name": "PredictionCreated",
      "type": "event"
    },
    {
      "anonymous": false,
      "inputs": [
        {
          "indexed": true,
          "internalType": "bytes32",
          "name": "roundid",
          "type": "bytes32"
        },
        {
          "indexed": false,
          "internalType": "uint256",
          "name": "archivedAt",
          "type": "uint256"
        }
      ],
      "name": "RoundArchived",
      "type": "event"
    },
    {
      "anonymous": false,
      "inputs": [
        {
          "indexed": true,
          "internalType": "bytes32",
          "name": "roundid",
          "type": "bytes32"
        },
        {
          "indexed": false,
          "internalType": "bytes32",
          "name": "gameid",
          "type": "bytes32"
        },
        {
          "indexed": false,
          "internalType": "address",
          "name": "openedBy",
          "type": "address"
        },
        {
          "indexed": false,
          "internalType": "address",
          "name": "erc20",
          "type": "address"
        },
        {
          "indexed": false,
          "internalType": "address",
          "name": "pricefeed",
          "type": "address"
        },
        {
          "components": [
            {
              "internalType": "int256",
              "name": "value",
              "type": "int256"
            },
            {
              "internalType": "uint256",
              "name": "timestamp",
              "type": "uint256"
            },
            {
              "internalType": "uint80",
              "name": "roundid",
              "type": "uint80"
            }
          ],
          "indexed": false,
          "internalType": "struct Price",
          "name": "entryPrice",
          "type": "tuple"
        },
        {
          "indexed": false,
          "internalType": "uint256",
          "name": "startDate",
          "type": "uint256"
        },
        {
          "indexed": false,
          "internalType": "uint256",
          "name": "lockDate",
          "type": "uint256"
        },
        {
          "indexed": false,
          "internalType": "uint256",
          "name": "endDate",
          "type": "uint256"
        },
        {
          "indexed": false,
          "internalType": "uint256",
          "name": "expirationDate",
          "type": "uint256"
        },
        {
          "indexed": false,
          "internalType": "uint256",
          "name": "openedAt",
          "type": "uint256"
        }
      ],
      "name": "RoundCreated",
      "type": "event"
    },
    {
      "anonymous": false,
      "inputs": [
        {
          "indexed": false,
          "internalType": "bytes32",
          "name": "roundid",
          "type": "bytes32"
        },
        {
          "indexed": false,
          "internalType": "address",
          "name": "erc20",
          "type": "address"
        },
        {
          "indexed": false,
          "internalType": "uint8",
          "name": "position",
          "type": "uint8"
        },
        {
          "indexed": false,
          "internalType": "uint256",
          "name": "amount",
          "type": "uint256"
        }
      ],
      "name": "RoundPrizepoolAdd",
      "type": "event"
    },
    {
      "anonymous": false,
      "inputs": [
        {
          "indexed": false,
          "internalType": "bytes32",
          "name": "roundid",
          "type": "bytes32"
        },
        {
          "indexed": false,
          "internalType": "uint256",
          "name": "payout",
          "type": "uint256"
        },
        {
          "indexed": false,
          "internalType": "uint256",
          "name": "commission",
          "type": "uint256"
        }
      ],
      "name": "RoundPrizepoolReleased",
      "type": "event"
    },
    {
      "anonymous": false,
      "inputs": [
        {
          "indexed": true,
          "internalType": "bytes32",
          "name": "roundid",
          "type": "bytes32"
        },
        {
          "components": [
            {
              "internalType": "int256",
              "name": "value",
              "type": "int256"
            },
            {
              "internalType": "uint256",
              "name": "timestamp",
              "type": "uint256"
            },
            {
              "internalType": "uint80",
              "name": "roundid",
              "type": "uint80"
            }
          ],
          "indexed": false,
          "internalType": "struct Price",
          "name": "exitPrice",
          "type": "tuple"
        },
        {
          "indexed": false,
          "internalType": "address",
          "name": "resolvedBy",
          "type": "address"
        },
        {
          "indexed": false,
          "internalType": "uint256",
          "name": "resolvedAt",
          "type": "uint256"
        },
        {
          "indexed": false,
          "internalType": "uint8",
          "name": "resolution",
          "type": "uint8"
        }
      ],
      "name": "RoundResolved",
      "type": "event"
    },
    {
      "anonymous": false,
      "inputs": [
        {
          "indexed": true,
          "internalType": "bytes32",
          "name": "roundid",
          "type": "bytes32"
        },
        {
          "indexed": false,
          "internalType": "address",
          "name": "resolvedBy",
          "type": "address"
        },
        {
          "indexed": false,
          "internalType": "uint256",
          "name": "resolvedAt",
          "type": "uint256"
        },
        {
          "indexed": false,
          "internalType": "uint8",
          "name": "resolution",
          "type": "uint8"
        }
      ],
      "name": "RoundResolvedNoContest",
      "type": "event"
    },
    {
      "anonymous": false,
      "inputs": [
        {
          "indexed": false,
          "internalType": "address",
          "name": "distributor",
          "type": "address"
        },
        {
          "indexed": false,
          "internalType": "address",
          "name": "bettor",
          "type": "address"
        },
        {
          "indexed": false,
          "internalType": "address",
          "name": "erc20",
          "type": "address"
        },
        {
          "indexed": false,
          "internalType": "uint256",
          "name": "amount",
          "type": "uint256"
        }
      ],
      "name": "StakersRewardDistributedViaContract",
      "type": "event"
    },
    {
      "anonymous": false,
      "inputs": [
        {
          "indexed": false,
          "internalType": "address",
          "name": "distributor",
          "type": "address"
        },
        {
          "indexed": false,
          "internalType": "address",
          "name": "bettor",
          "type": "address"
        },
        {
          "indexed": false,
          "internalType": "address",
          "name": "erc20",
          "type": "address"
        },
        {
          "indexed": false,
          "internalType": "uint256",
          "name": "amount",
          "type": "uint256"
        }
      ],
      "name": "StakersRewardDistributedViaEOA",
      "type": "event"
    },
    {
      "inputs": [],
      "name": "DISTRIBUTOR_EOA",
      "outputs": [
        {
          "internalType": "address",
          "name": "",
          "type": "address"
        }
      ],
      "stateMutability": "view",
      "type": "function"
    },
    {
      "inputs": [],
      "name": "MENTORING_CONTRACT",
      "outputs": [
        {
          "internalType": "address",
          "name": "",
          "type": "address"
        }
      ],
      "stateMutability": "view",
      "type": "function"
    },
    {
      "inputs": [],
      "name": "METAORACLY_CONTRACT",
      "outputs": [
        {
          "internalType": "address",
          "name": "",
          "type": "address"
        }
      ],
      "stateMutability": "view",
      "type": "function"
    },
    {
      "inputs": [],
      "name": "STAKING_CONTRACT",
      "outputs": [
        {
          "internalType": "address",
          "name": "",
          "type": "address"
        }
      ],
      "stateMutability": "view",
      "type": "function"
    },
    {
      "inputs": [],
      "name": "VIGORISH_PERCENT",
      "outputs": [
        {
          "internalType": "uint8",
          "name": "",
          "type": "uint8"
        }
      ],
      "stateMutability": "view",
      "type": "function"
    },
    {
      "inputs": [
        {
          "internalType": "address",
          "name": "",
          "type": "address"
        }
      ],
      "name": "__FATAL_INSUFFICIENT_PRIZEPOOL_ERROR__",
      "outputs": [
        {
          "internalType": "bool",
          "name": "",
          "type": "bool"
        }
      ],
      "stateMutability": "view",
      "type": "function"
    },
    {
      "inputs": [
        {
          "internalType": "address",
          "name": "bettor",
          "type": "address"
        },
        {
          "internalType": "address",
          "name": "erc20",
          "type": "address"
        }
      ],
      "name": "getBettor",
      "outputs": [
        {
          "internalType": "address",
          "name": "bettorid",
          "type": "address"
        },
        {
          "internalType": "uint256[4]",
          "name": "predictions",
          "type": "uint256[4]"
        },
        {
          "internalType": "uint256[4]",
          "name": "deposits",
          "type": "uint256[4]"
        },
        {
          "internalType": "uint256[4]",
          "name": "payouts",
          "type": "uint256[4]"
        }
      ],
      "stateMutability": "view",
      "type": "function"
    },
    {
      "inputs": [
        {
          "internalType": "address",
          "name": "bettor",
          "type": "address"
        },
        {
          "internalType": "uint8",
          "name": "position",
          "type": "uint8"
        },
        {
          "internalType": "uint256",
          "name": "offset",
          "type": "uint256"
        }
      ],
      "name": "getBettorPredictions",
      "outputs": [
        {
          "components": [
            {
              "internalType": "bytes32",
              "name": "predictionid",
              "type": "bytes32"
            },
            {
              "internalType": "bytes32",
              "name": "roundid",
              "type": "bytes32"
            },
            {
              "internalType": "bytes32",
              "name": "gameid",
              "type": "bytes32"
            },
            {
              "internalType": "address",
              "name": "bettor",
              "type": "address"
            },
            {
              "internalType": "uint8",
              "name": "position",
              "type": "uint8"
            },
            {
              "internalType": "uint256",
              "name": "deposit",
              "type": "uint256"
            },
            {
              "internalType": "bool",
              "name": "claimed",
              "type": "bool"
            },
            {
              "internalType": "uint256",
              "name": "createdAt",
              "type": "uint256"
            },
            {
              "internalType": "uint256",
              "name": "payout",
              "type": "uint256"
            },
            {
              "internalType": "uint256",
              "name": "commission",
              "type": "uint256"
            },
            {
              "internalType": "address",
              "name": "erc20",
              "type": "address"
            }
          ],
          "internalType": "struct Prediction[]",
          "name": "predictions",
          "type": "tuple[]"
        },
        {
          "internalType": "uint256",
          "name": "size",
          "type": "uint256"
        }
      ],
      "stateMutability": "view",
      "type": "function"
    },
    {
      "inputs": [
        {
          "internalType": "bytes32",
          "name": "gameid",
          "type": "bytes32"
        },
        {
          "internalType": "uint256",
          "name": "offset",
          "type": "uint256"
        }
      ],
      "name": "getGameRounds",
      "outputs": [
        {
          "internalType": "bytes32[]",
          "name": "roundids",
          "type": "bytes32[]"
        },
        {
          "internalType": "uint256",
          "name": "size",
          "type": "uint256"
        }
      ],
      "stateMutability": "view",
      "type": "function"
    },
    {
      "inputs": [
        {
          "internalType": "bytes32",
          "name": "predictionid",
          "type": "bytes32"
        }
      ],
      "name": "getPrediction",
      "outputs": [
        {
          "components": [
            {
              "internalType": "bytes32",
              "name": "predictionid",
              "type": "bytes32"
            },
            {
              "internalType": "bytes32",
              "name": "roundid",
              "type": "bytes32"
            },
            {
              "internalType": "bytes32",
              "name": "gameid",
              "type": "bytes32"
            },
            {
              "internalType": "address",
              "name": "bettor",
              "type": "address"
            },
            {
              "internalType": "uint8",
              "name": "position",
              "type": "uint8"
            },
            {
              "internalType": "uint256",
              "name": "deposit",
              "type": "uint256"
            },
            {
              "internalType": "bool",
              "name": "claimed",
              "type": "bool"
            },
            {
              "internalType": "uint256",
              "name": "createdAt",
              "type": "uint256"
            },
            {
              "internalType": "uint256",
              "name": "payout",
              "type": "uint256"
            },
            {
              "internalType": "uint256",
              "name": "commission",
              "type": "uint256"
            },
            {
              "internalType": "address",
              "name": "erc20",
              "type": "address"
            }
          ],
          "internalType": "struct Prediction",
          "name": "prediction",
          "type": "tuple"
        }
      ],
      "stateMutability": "view",
      "type": "function"
    },
    {
      "inputs": [
        {
          "internalType": "bytes32",
          "name": "roundid",
          "type": "bytes32"
        }
      ],
      "name": "getRound",
      "outputs": [
        {
          "components": [
            {
              "internalType": "bytes32",
              "name": "roundid",
              "type": "bytes32"
            },
            {
              "internalType": "bytes32",
              "name": "gameid",
              "type": "bytes32"
            },
            {
              "internalType": "uint8",
              "name": "resolution",
              "type": "uint8"
            },
            {
              "components": [
                {
                  "internalType": "int256",
                  "name": "value",
                  "type": "int256"
                },
                {
                  "internalType": "uint256",
                  "name": "timestamp",
                  "type": "uint256"
                },
                {
                  "internalType": "uint80",
                  "name": "roundid",
                  "type": "uint80"
                }
              ],
              "internalType": "struct Price",
              "name": "entryPrice",
              "type": "tuple"
            },
            {
              "components": [
                {
                  "internalType": "int256",
                  "name": "value",
                  "type": "int256"
                },
                {
                  "internalType": "uint256",
                  "name": "timestamp",
                  "type": "uint256"
                },
                {
                  "internalType": "uint80",
                  "name": "roundid",
                  "type": "uint80"
                }
              ],
              "internalType": "struct Price",
              "name": "exitPrice",
              "type": "tuple"
            },
            {
              "internalType": "uint256",
              "name": "startDate",
              "type": "uint256"
            },
            {
              "internalType": "uint256",
              "name": "lockDate",
              "type": "uint256"
            },
            {
              "internalType": "uint256",
              "name": "endDate",
              "type": "uint256"
            },
            {
              "internalType": "uint256",
              "name": "expirationDate",
              "type": "uint256"
            },
            {
              "internalType": "bool",
              "name": "resolved",
              "type": "bool"
            },
            {
              "internalType": "uint256",
              "name": "resolvedAt",
              "type": "uint256"
            },
            {
              "internalType": "uint256",
              "name": "openedAt",
              "type": "uint256"
            },
            {
              "internalType": "address",
              "name": "erc20",
              "type": "address"
            },
            {
              "internalType": "address",
              "name": "pricefeed",
              "type": "address"
            },
            {
              "internalType": "bool",
              "name": "archived",
              "type": "bool"
            },
            {
              "internalType": "uint256",
              "name": "archivedAt",
              "type": "uint256"
            }
          ],
          "internalType": "struct Round",
          "name": "round",
          "type": "tuple"
        },
        {
          "internalType": "uint256[4]",
          "name": "prizepools",
          "type": "uint256[4]"
        },
        {
          "internalType": "uint256[4]",
          "name": "bettors",
          "type": "uint256[4]"
        },
        {
          "internalType": "uint256[4]",
          "name": "predictions",
          "type": "uint256[4]"
        }
      ],
      "stateMutability": "view",
      "type": "function"
    },
    {
      "inputs": [
        {
          "internalType": "bytes32",
          "name": "roundid",
          "type": "bytes32"
        },
        {
          "internalType": "uint8",
          "name": "position",
          "type": "uint8"
        },
        {
          "internalType": "uint256",
          "name": "offset",
          "type": "uint256"
        }
      ],
      "name": "getRoundPredictions",
      "outputs": [
        {
          "components": [
            {
              "internalType": "bytes32",
              "name": "predictionid",
              "type": "bytes32"
            },
            {
              "internalType": "bytes32",
              "name": "roundid",
              "type": "bytes32"
            },
            {
              "internalType": "bytes32",
              "name": "gameid",
              "type": "bytes32"
            },
            {
              "internalType": "address",
              "name": "bettor",
              "type": "address"
            },
            {
              "internalType": "uint8",
              "name": "position",
              "type": "uint8"
            },
            {
              "internalType": "uint256",
              "name": "deposit",
              "type": "uint256"
            },
            {
              "internalType": "bool",
              "name": "claimed",
              "type": "bool"
            },
            {
              "internalType": "uint256",
              "name": "createdAt",
              "type": "uint256"
            },
            {
              "internalType": "uint256",
              "name": "payout",
              "type": "uint256"
            },
            {
              "internalType": "uint256",
              "name": "commission",
              "type": "uint256"
            },
            {
              "internalType": "address",
              "name": "erc20",
              "type": "address"
            }
          ],
          "internalType": "struct Prediction[]",
          "name": "predictions",
          "type": "tuple[]"
        },
        {
          "internalType": "uint256",
          "name": "size",
          "type": "uint256"
        }
      ],
      "stateMutability": "view",
      "type": "function"
    },
    {
      "inputs": [
        {
          "internalType": "address",
          "name": "bettor",
          "type": "address"
        },
        {
          "internalType": "bytes32",
          "name": "roundid",
          "type": "bytes32"
        }
      ],
      "name": "isBettorInRound",
      "outputs": [
        {
          "internalType": "bool",
          "name": "inround",
          "type": "bool"
        }
      ],
      "stateMutability": "view",
      "type": "function"
    },
    {
      "inputs": [
        {
          "internalType": "uint256",
          "name": "amount",
          "type": "uint256"
        },
        {
          "internalType": "uint8",
          "name": "position",
          "type": "uint8"
        },
        {
          "internalType": "bytes32",
          "name": "gameid",
          "type": "bytes32"
        },
        {
          "internalType": "bytes32",
          "name": "roundid",
          "type": "bytes32"
        }
      ],
      "name": "placePrediction",
      "outputs": [],
      "stateMutability": "nonpayable",
      "type": "function"
    },
    {
      "inputs": [
        {
          "internalType": "bytes32",
          "name": "roundid",
          "type": "bytes32"
        },
        {
          "internalType": "uint80",
          "name": "exitPriceid",
          "type": "uint80"
        }
      ],
      "name": "resolve",
      "outputs": [],
      "stateMutability": "nonpayable",
      "type": "function"
    },
    {
      "inputs": [
        {
          "internalType": "bytes32",
          "name": "roundid",
          "type": "bytes32"
        },
        {
          "internalType": "bytes32",
          "name": "predictionid",
          "type": "bytes32"
        },
        {
          "internalType": "address",
          "name": "erc20",
          "type": "address"
        },
        {
          "internalType": "uint80",
          "name": "exitPriceid",
          "type": "uint80"
        }
      ],
      "name": "resolve4withdraw",
      "outputs": [],
      "stateMutability": "nonpayable",
      "type": "function"
    },
    {
      "inputs": [
        {
          "internalType": "bytes32",
          "name": "roundid",
          "type": "bytes32"
        },
        {
          "internalType": "bytes32",
          "name": "predictionid",
          "type": "bytes32"
        },
        {
          "internalType": "address",
          "name": "erc20",
          "type": "address"
        }
      ],
      "name": "withdraw",
      "outputs": [],
      "stateMutability": "nonpayable",
      "type": "function"
    }
  ],
  "bytecode": "0x6101006040523480156200001257600080fd5b5060405162004b0b38038062004b0b833981016040819052620000359162000222565b6001600055806001600160a01b0381163b620000985760405162461bcd60e51b815260206004820181905260248201527f43616e6e6f74557365454f4141734d6574614f7261636c79436f6e747261637460448201526064015b60405180910390fd5b6001600160a01b0390811660805283163b6200010e5760405162461bcd60e51b815260206004820152602e60248201527f43616e6e6f74557365454f4141735374616b696e67526577617264446973747260448201526d1a589d5d1bdc90dbdb9d1c9858dd60921b60648201526084016200008f565b6000826001600160a01b03163b11620001835760405162461bcd60e51b815260206004820152603060248201527f43616e6e6f74557365454f4141734d656e746f72696e6752657761726444697360448201526f1d1c9a589d5d1bdc90dbdb9d1c9858dd60821b60648201526084016200008f565b6001600160a01b0384163b15620001e75760405162461bcd60e51b815260206004820152602160248201527f43616e6e6f74557365436f6e74726163744173454f414469737472696275746f6044820152603960f91b60648201526084016200008f565b506001600160a01b0391821660a052811660c0521660e0526200027f565b80516001600160a01b03811681146200021d57600080fd5b919050565b600080600080608085870312156200023957600080fd5b620002448562000205565b9350620002546020860162000205565b9250620002646040860162000205565b9150620002746060860162000205565b905092959194509250565b60805160a05160c05160e0516147f762000314600039600081816101f5015281816130430152818161308b0152818161325a01526132a201526000818161021c01528181612e8b01528181612f2c01528181612fdb01526130ed01526000818161029d01528181613147015281816131f201526133040152600081816101b60152818161065f015261181b01526147f76000f3fe608060405234801561001057600080fd5b506004361061010b5760003560e01c8063a65b9a60116100a2578063da19ddfb11610071578063da19ddfb14610298578063dc6423ab146102bf578063dd2be61d146102df578063eec73d8f14610302578063f038b43b1461031557600080fd5b8063a65b9a601461023e578063c228393414610251578063ca66558714610264578063d7b069f21461028557600080fd5b806344e7ab4c116100de57806344e7ab4c1461019757806348325834146101b1578063977676eb146101f05780639b0884a71461021757600080fd5b806303716085146101105780630458d3c6146101255780631119e1851461015157806320ca57d714610184575b600080fd5b61012361011e366004613ec6565b610336565b005b610138610133366004613f0b565b6103a8565b6040516101489493929190613f5c565b60405180910390f35b61017461015f366004613f95565b600b6020526000908152604090205460ff1681565b6040519015158152602001610148565b610123610192366004613fc8565b6105f6565b61019f600181565b60405160ff9091168152602001610148565b6101d87f000000000000000000000000000000000000000000000000000000000000000081565b6040516001600160a01b039091168152602001610148565b6101d87f000000000000000000000000000000000000000000000000000000000000000081565b6101d87f000000000000000000000000000000000000000000000000000000000000000081565b61012361024c366004614003565b610b8f565b61017461025f36600461403c565b610bfa565b610277610272366004614068565b610c19565b604051610148929190614146565b61012361029336600461419e565b610e5e565b6101d87f000000000000000000000000000000000000000000000000000000000000000081565b6102d26102cd3660046141e8565b610ee7565b6040516101489190614201565b6102f26102ed3660046141e8565b610f96565b6040516101489493929190614210565b610277610310366004614368565b611259565b61032861032336600461438d565b61147b565b6040516101489291906143af565b61033e61159d565b33803b156103675760405162461bcd60e51b815260040161035e906143e8565b60405180910390fd5b326001600160a01b0382161461038f5760405162461bcd60e51b815260040161035e906143e8565b61039983836115c7565b506103a46001600055565b5050565b60006103b2613d5f565b6103ba613d5f565b6103c2613d5f565b6001600160a01b03861660009081526005602052604081206103e990825b60020201611bf7565b905080156103f757866103fa565b60005b604080516080810182528381526001600160a01b038a1660009081526005602090815292902092975091908201906104429060025b60ff16600481106103e0576103e0614417565b81526001600160a01b038916600090815260056020908152604090912091019061046d90600161042f565b81526001600160a01b038916600090815260056020908152604090912091019061049890600361042f565b9052604080516080810182526001600160a01b038a8116600090815260076020908152848220928c168083528382529482208054855294909152908152929650918201906002015481526001600160a01b038981166000908152600760209081526040808320938c1683529281529190209101906001015481526001600160a01b038981166000908152600760209081526040808320938c168352928152919020910190600301549052604080516080810182526001600160a01b038a8116600090815260086020908152848220928c168083528382529482208054855294909152908152929550918201906002015481526001600160a01b038981166000908152600860209081526040808320938c1683529281529190209101906001015481526001600160a01b038981166000908152600860209081526040808320938c16835292815291902091019060030154905294979396509194505050565b6105fe61159d565b33803b1561061e5760405162461bcd60e51b815260040161035e906143e8565b326001600160a01b038216146106465760405162461bcd60e51b815260040161035e906143e8565b6040516373931bbf60e01b8152600481018490526000907f00000000000000000000000000000000000000000000000000000000000000006001600160a01b0316906373931bbf9060240161012060405180830381865afa1580156106af573d6000803e3d6000fd5b505050506040513d601f19601f820116820180604052508101906106d391906144a8565b90508315806106e3575080518414155b156107235760405162461bcd60e51b815260206004820152601060248201526f4e6f74537570706f7274656447616d6560801b604482015260640161035e565b806101000151156107815760405162461bcd60e51b815260206004820152602260248201527f43616e6e6f74506c61636550726564696374696f6e47616d654973426c6f636b604482015261195960f21b606482015260840161035e565b6040808201516001600160a01b03166000908152600b602052205460ff16156107fd5760405162461bcd60e51b815260206004820152602860248201527f43616e6e6f74506c61636550726564696374696f6e4552433230546f6b656e496044820152671cd09b1bd8dad95960c21b606482015260840161035e565b60ff8516600214801590610815575060ff8516600114155b8015610825575060ff8516600314155b156108695760405162461bcd60e51b81526020600482015260146024820152732737ba29bab83837b93a32b22837b9b4ba34b7b760611b604482015260640161035e565b8060e001518610156108bd5760405162461bcd60e51b815260206004820152601960248201527f556e61636365707461626c654465706f736974416d6f756e7400000000000000604482015260640161035e565b60003360408084015190516370a0823160e01b81526001600160a01b0380841660048301529293508992909116906370a0823190602401602060405180830381865afa158015610911573d6000803e3d6000fd5b505050506040513d601f19601f82011682018060405250810190610935919061453b565b10156109775760405162461bcd60e51b8152602060048201526011602482015270496e73756666696369656e7446756e647360781b604482015260640161035e565b6040808301519051636eb1769f60e11b81526001600160a01b0383811660048301523060248301528992169063dd62ed3e90604401602060405180830381865afa1580156109c9573d6000803e3d6000fd5b505050506040513d601f19601f820116820180604052508101906109ed919061453b565b1015610a335760405162461bcd60e51b8152602060048201526015602482015274496e73756666696369656e74416c6c6f77616e636560581b604482015260640161035e565b6000826080015142610a45919061456a565b90506000610a538242614594565b84516040805160208082019390935280820184905281518082038301815260609091019091528051910120909150868114610adf5760405162461bcd60e51b815260206004820152602660248201527f43616e6e6f74506c61636550726564696374696f6e496e746f556e61637475616044820152651b149bdd5b9960d21b606482015260840161035e565b8460a001518310610b465760405162461bcd60e51b815260206004820152602b60248201527f43616e6e6f74506c61636550726564696374696f6e4f75744f66506f7369746960448201526a1bdb9a5b99d4195c9a5bd960aa1b606482015260840161035e565b610b5285888b8d611c07565b610b5f85888b8d88611c21565b6040850151610b79906001600160a01b031685308d611f27565b505050505050610b896001600055565b50505050565b610b9761159d565b33803b15610bb75760405162461bcd60e51b815260040161035e906143e8565b326001600160a01b03821614610bdf5760405162461bcd60e51b815260040161035e906143e8565b610bea848484611f8e565b50610bf56001600055565b505050565b6000818152600660205260408120610c129084611fb2565b9392505050565b604080516000808252602082019092526060919081610c4e565b610c3b613d7d565b815260200190600190039081610c335790505b506001600160a01b0386166000908152600560205260409020909250610c829060ff8616600481106103e0576103e0614417565b90508015610e565780831015610e56576000610c9e8483614594565b905060006014821115610cb957610cb6601483614594565b90505b6000610cc58284614594565b90508067ffffffffffffffff811115610ce057610ce061442d565b604051908082528060200260200182016040528015610d1957816020015b610d06613d7d565b815260200190600190039081610cfe5790505b50945060005b818114610e51576000610d7782610d37600188614594565b610d419190614594565b6001600160a01b038c16600090815260056020526040902060ff8c1660048110610d6d57610d6d614417565b6002020190611fd4565b60008181526001602081815260409283902083516101608101855281548152928101549183019190915260028101549282019290925260038201546001600160a01b038082166060840152600160a01b90910460ff9081166080840152600484015460a0840152600584015416151560c0830152600683015460e083015260078301546101008301526008830154610120830152600990920154909116610140820152885191925090889084908110610e3257610e32614417565b60200260200101819052508180610e48906145a7565b92505050610d1f565b505050505b935093915050565b610e6661159d565b33803b15610e865760405162461bcd60e51b815260040161035e906143e8565b326001600160a01b03821614610eae5760405162461bcd60e51b815260040161035e906143e8565b6000858152600260205260409020600d015460ff16610ed157610ed185836115c7565b610edc858585611f8e565b50610b896001600055565b610eef613d7d565b5060009081526001602081815260409283902083516101608101855281548152928101549183019190915260028101549282019290925260038201546001600160a01b038082166060840152600160a01b90910460ff9081166080840152600484015460a0840152600584015416151560c0830152600683015460e08301526007830154610100830152600883015461012083015260099092015490911661014082015290565b610f9e613dd9565b610fa6613d5f565b610fae613d5f565b610fb6613d5f565b600085815260026020818152604080842081516102008101835281548152600180830154828601529482015460ff908116828501528351606080820186526003850154825260048501548288015260058501546001600160501b0390811683880152818501929092528551908101865260068501548152600785015481880152600885015490911681860152608080840191909152600984015460a0840152600a8085015460c0850152600b85015460e0850152600c850154610100850152600d85015483161515610120850152600e850154610140850152600f85015461016085015260108501546001600160a01b0390811661018086015260118601549081166101a0860152600160a01b900490921615156101c08401526012909301546101e0830152835192830184528b875280855292862080548352958b90529183529097509290830191015481526000878152600a602090815260409091209101906002015481526000878152600a60209081526040909120910190600301549052604080516080810182526000888152600660205291822092955091829161115e91906103e0565b8152600087815260066020908152604090912091019061117f90600161042f565b815260008781526006602090815260409091209101906111a090600261042f565b815260008781526006602090815260409091209101906111c190600361042f565b905260408051608081018252600088815260046020529182209294509182916111ea91906103e0565b8152600087815260046020908152604090912091019061120b90600161042f565b8152600087815260046020908152604090912091019061122c90600261042f565b8152600087815260046020908152604090912091019061124d90600361042f565b81525090509193509193565b60408051600080825260208201909252606091908161128e565b61127b613d7d565b8152602001906001900390816112735790505b5091506112bb600460008781526020019081526020016000208560ff16600481106103e0576103e0614417565b90508015610e565780831015610e565760006112d78483614594565b9050600060148211156112f2576112ef601483614594565b90505b60006112fe8284614594565b90508067ffffffffffffffff8111156113195761131961442d565b60405190808252806020026020018201604052801561135257816020015b61133f613d7d565b8152602001906001900390816113375790505b50945060005b818114610e515760006113a182611370600188614594565b61137a9190614594565b600460008d81526020019081526020016000208b60ff1660048110610d6d57610d6d614417565b60008181526001602081815260409283902083516101608101855281548152928101549183019190915260028101549282019290925260038201546001600160a01b038082166060840152600160a01b90910460ff9081166080840152600484015460a0840152600584015416151560c0830152600683015460e08301526007830154610100830152600883015461012083015260099092015490911661014082015288519192509088908490811061145c5761145c614417565b60200260200101819052508180611472906145a7565b92505050611358565b60408051600080825260208083018452858252600990529182209091906114a190611bf7565b9050801561159657808310156115965760006114bd8483614594565b9050600060148211156114d8576114d5601483614594565b90505b60006114e48284614594565b90508067ffffffffffffffff8111156114ff576114ff61442d565b604051908082528060200260200182016040528015611528578160200160208202803683370190505b50945060005b8181146115915761156281611544600187614594565b61154e9190614594565b60008a815260096020526040902090611fd4565b86828151811061157457611574614417565b602090810291909101015280611589816145a7565b91505061152e565b505050505b9250929050565b6002600054036115c057604051633ee5aeb560e01b815260040160405180910390fd5b6002600055565b6000828152600260205260409020600d81015460ff161561162a5760405162461bcd60e51b815260206004820152601a60248201527f43616e6e6f745265736f6c76655265736f6c766564526f756e64000000000000604482015260640161035e565b80600f015460000361167e5760405162461bcd60e51b815260206004820152601a60248201527f43616e6e6f745265736f6c7665556e6f70656e6564526f756e64000000000000604482015260640161035e565b600d8101805460ff1916600117905542600e82015561169c83611fe0565b1561176a5780600a015442116117005760405162461bcd60e51b815260206004820152602360248201527f43616e6e6f745265736f6c7665526f756e64447572696e67506f736974696f6e604482015262696e6760e81b606482015260840161035e565b60045b60028201805460ff191660ff92909216919091179055827f1d70e904f45cd32cce5e54b23e1d022880a78c6b455333112a5b9afb7401e3ce33604080516001600160a01b0390921682524260208301526004908201526060015b60405180910390a2505050565b80600b015442116117bd5760405162461bcd60e51b815260206004820152601f60248201527f43616e6e6f745265736f6c7665526f756e644265666f7265456e644461746500604482015260640161035e565b80600c01544211156117d0576004611703565b60108101546001600160a01b03166000908152600b602052604090205460ff16156117fc576004611703565b60018101546040516373931bbf60e01b81526000916001600160a01b037f000000000000000000000000000000000000000000000000000000000000000016916373931bbf916118529160040190815260200190565b61012060405180830381865afa158015611870573d6000803e3d6000fd5b505050506040513d601f19601f8201168201806040525081019061189491906144a8565b9050806101000151156119015760028201805460ff19166004179055837f1d70e904f45cd32cce5e54b23e1d022880a78c6b455333112a5b9afb7401e3ce33604080516001600160a01b03909216825242602083015260049082015260600160405180910390a250505050565b826001600160501b031660000361195a5760405162461bcd60e51b815260206004820152601e60248201527f43616e6e6f745265736f6c7665526f756e64576974686f757450726963650000604482015260640161035e565b6011820154600090611975906001600160a01b031685612024565b601184015490915060009061199d906001600160a01b03166119988760016145c0565b612024565b6040805161020081018252865481526001870154602080830191909152600288015460ff9081168385015283516060818101865260038b0154825260048b01548285015260058b01546001600160501b0390811683880152818601929092528551908101865260068b0154815260078b01549381019390935260088a015416938201939093526080820152600987015460a0820152600a87015460c0820152600b87015460e0820152600c870154610100820152600d87015482161515610120820152600e870154610140820152600f87015461016082015260108701546001600160a01b0390811661018083015260118801549081166101a0830152600160a01b900490911615156101c082015260128601546101e0820152909150611ac5908383612186565b611b0a5760405162461bcd60e51b815260206004820152601660248201527524b73b30b634b22937bab7322932b9b7b63aba34b7b760511b604482015260640161035e565b81516006850155602080830151600786015560408084015160088701805469ffffffffffffffffffff19166001600160501b0392831617905581516060810183526003880154815260048801549381019390935260058701541690820152611b7490879084612364565b60028501805460ff9290921660ff1990921682179055604080518451815260208086015190820152848201516001600160501b03168183015233606082015242608082015260a08101929092525187917fd00bb9f60073f1f874f11dfe0176266ab672db5ca83f24160bc6d6fb022bbdd1919081900360c00190a2505050505050565b6000611c01825490565b92915050565b611c1184846123c2565b610b89838383876040015161265f565b60408051602081018690526001600160a01b0383169181019190915260ff8416606082015260009060800160408051601f1981840301815291815281516020928301206000818152600190935290822080549193509103611e3c5781815560018101869055865160028201556003810180546001600160a01b038581166001600160a81b031990921691909117600160a01b60ff8916908102919091179092554260068401556040808a01516009850180546001600160a01b0319169190931617909155600088815260046020819052919020611d129285928110611d0857611d08614417565b600202019061273b565b506000868152600460205260408120611d2d91849190611d08565b506000868152600660205260409020611d6090849060ff881660048110611d5657611d56614417565b6002020190612747565b506000868152600660205260408120611d7b91859190611d56565b506001600160a01b0383166000908152600560205260409020611dae90839060ff881660048110611d0857611d08614417565b506001600160a01b0383166000908152600560205260408120611dd391849190611d08565b50604087810151885182518981526001600160a01b03878116602083015260ff8a1682860152426060830152909216608083015260a0820152905183917f801a49a34507de3df14d630acaf8eb85ec679fda72b6c9c7789802fab0b3da88919081900360c00190a25b838160040154611e4c91906145e7565b60048201556001600160a01b0383811660009081526007602090815260408083208b82015190941683529290529081208054869290611e8c9084906145e7565b90915550506001600160a01b0380841660009081526007602090815260408083208b820151909416835292905220849060ff871660048110611ed057611ed0614417565b016000828254611ee091906145e7565b909155505060408051838152602081018690527f953c9d80e37acc4bc3cf709a79e79cf95ccd5e7e5bbd711ca40c2d907e818ea7910160405180910390a150505050505050565b6040516001600160a01b038481166024830152838116604483015260648201839052610b899186918216906323b872dd906084015b604051602081830303815290604052915060e01b6020820180516001600160e01b03838183161783525050505061275c565b600080611f9c8585856127bf565b91509150611fab838383612d09565b5050505050565b6001600160a01b03811660009081526001830160205260408120541515610c12565b6000610c12838361335b565b6000818152600a602052604081206002810154600182015460038301549254919290918084148061201057508083145b8061201a57508082145b9695505050505050565b6120516040518060600160405280600081526020016000815260200160006001600160501b031681525090565b604051639a6fc8f560e01b81526001600160501b03831660048201526001600160a01b03841690639a6fc8f59060240160a060405180830381865afa9250505080156120ba575060408051601f3d908101601f191682019092526120b7918101906145fa565b60015b6120ec576040518060600160405280600081526020016000815260200160006001600160501b03168152509050611c01565b866001600160501b0316856001600160501b031614801561211e5750806001600160501b0316856001600160501b0316145b15612153576040518060600160405280858152602001838152602001866001600160501b031681525095505050505050611c01565b6040518060600160405280600081526020016000815260200160006001600160501b031681525095505050505050611c01565b600061219183613385565b61219d57506000610c12565b6121a682613385565b6121b257506000610c12565b6121bf8460600151613385565b6121cb57506000610c12565b825182516121d99190613406565b6121e557506000610c12565b82516060850151516121f79190613406565b61220357506000610c12565b8360c001518360200151101561221b57506000610c12565b8360e0015183602001511061223257506000610c12565b8360e001518260200151101561224a57506000610c12565b83606001516020015183602001511161226557506000610c12565b60008061228086606001516040015161ffff604082901c1691565b9150915060008061229b876040015161ffff604082901c1691565b915091506000806122b6886040015161ffff604082901c1691565b915091508361ffff168661ffff16146122d85760009650505050505050610c12565b8161ffff168661ffff16146122f65760009650505050505050610c12565b8267ffffffffffffffff168567ffffffffffffffff16106123205760009650505050505050610c12565b67ffffffffffffffff8116612336846001614652565b67ffffffffffffffff16146123545760009650505050505050610c12565b5060019998505050505050505050565b81518151600091121561237b5760025b9050612399565b82518251121561238c576001612374565b8251825103612399575060035b60ff81166123a957506004610c12565b6123b38482613452565b15610c12576004949350505050565b8151604080840151600084815260026020529182208054919290919003611fab57845160009081526009602052604090206123fd908561273b565b506000856080015142612410919061456a565b9050600061241e8242614594565b60208801519091506000612431826134a0565b905061243c81613385565b6124885760405162461bcd60e51b815260206004820152601860248201527f526f756e64456e7472795072696365496e496e76616c69640000000000000000604482015260640161035e565b82816020015110156124dc5760405162461bcd60e51b815260206004820181905260248201527f526f756e64456e747279507269636554696d657374616d70546f6f4561726c79604482015260640161035e565b60008960a00151846124ee91906145e7565b9050808260200151106125435760405162461bcd60e51b815260206004820152601f60248201527f526f756e64456e747279507269636554696d657374616d70546f6f4c61746500604482015260640161035e565b60008a608001518561255591906145e7565b905060008b60c001518261256991906145e7565b8b8955600189018b9055845160038a0155602085015160048a0155604085015160058a01805469ffffffffffffffffffff19166001600160501b0390921691909117905560098901879055600a8901849055600b8901839055600c890181905542600f8a01556010890180546001600160a01b03199081166001600160a01b038d81169190911790925560118b01805490911691881691909117905590508a7f73e7cda58b42d99c1b89b1c6261286c4794757c7b5134a3395a3bdf7d4e049398b338c89898c8a8a8a426040516126499a99989796959493929190614673565b60405180910390a2505050505050505050505050565b6000848152600a60205260409020829060ff8516610100811061268457612684614417565b015461269091906145e7565b6000858152600a6020526040902060ff851661010081106126b3576126b3614417565b01556000848152600a60205260409020546126cf9083906145e7565b6000858152600a602052604081200155604080518581526001600160a01b038316602082015260ff851691810191909152606081018390527ff0c8a00d87308266dcabb550e9e4a0e27beabc6f7cf0c99a981b5695f6e0e106906080015b60405180910390a150505050565b6000610c1283836135b8565b6000610c12836001600160a01b0384166135b8565b60006127716001600160a01b03841683613607565b9050805160001415801561279657508080602001905181019061279491906146f4565b155b15610bf557604051635274afe760e01b81526001600160a01b038416600482015260240161035e565b6000806001600160a01b03831661280b5760405162461bcd60e51b815260206004820152601060248201526f4552433230416464726573735a65726f60801b604482015260640161035e565b600084815260016020818152604092839020835161016081018552815481529281015491830182905260028101549383019390935260038301546001600160a01b038082166060850152600160a01b90910460ff9081166080850152600485015460a0850152600585015416151560c0840152600684015460e0840152600784015461010084015260088401546101208401526009909301549092166101408201529086146128fc5760405162461bcd60e51b815260206004820152601760248201527f50726564696374696f6e526f756e644d69736d61746368000000000000000000604482015260640161035e565b600086815260026020818152604092839020835161020081018552815481526001820154818401529281015460ff908116848601528451606081810187526003840154825260048401548286015260058401546001600160501b0390811683890152818701929092528651908101875260068401548152600784015494810194909452600883015416948301949094526080830191909152600981015460a0830152600a81015460c0830152600b81015460e0830152600c810154610100830152600d81015483161515610120830152600e810154610140830152600f81015461016083015260108101546001600160a01b03908116610180840181905260118301548083166101a0860152600160a01b900490941615156101c08401526012909101546101e0830152909190861614612a785760405162461bcd60e51b815260206004820152601c60248201527f455243323050726564696374696f6e526f756e644d69736d6174636800000000604482015260640161035e565b80516000908152600460205260408120612a9a918891905b6002020190613615565b612ae65760405162461bcd60e51b815260206004820152601d60248201527f43616e6e6f74436c61696d4e6f6e526f756e6450726564696374696f6e000000604482015260640161035e565b606082015133906001600160a01b03168114612b445760405162461bcd60e51b815260206004820152601860248201527f426574746f7250726564696374696f6e4d69736d617463680000000000000000604482015260640161035e565b8260c0015115612b965760405162461bcd60e51b815260206004820152601c60248201527f43616e6e6f74436c61696d436c61696d656450726564696374696f6e00000000604482015260640161035e565b825182516000908152600360205260408120612bb29291612a90565b15612bff5760405162461bcd60e51b815260206004820152601c60248201527f43616e6e6f74436c61696d436c61696d656450726564696374696f6e00000000604482015260640161035e565b816101200151612c5d5760405162461bcd60e51b8152602060048201526024808201527f43616e6e6f74436c61696d50726564696374696f6e556e7265736f6c766564526044820152631bdd5b9960e21b606482015260840161035e565b604082015160ff16600414801590612c835750826080015160ff16826040015160ff1614155b15612cd05760405162461bcd60e51b815260206004820152601960248201527f43616e6e6f74436c61696d4c6f737450726564696374696f6e00000000000000604482015260640161035e565b612cda838361362d565b9095509350612cea8786866137a8565b612cf5888686613944565b612cfe82613a22565b505050935093915050565b33612d1482846145e7565b6040516370a0823160e01b81523060048201526001600160a01b038616906370a0823190602401602060405180830381865afa158015612d58573d6000803e3d6000fd5b505050506040513d601f19601f82011682018060405250810190612d7c919061453b565b1015612e5d576001600160a01b0384166000818152600b602052604090819020805460ff19166001179055516370a0823160e01b81523060048201527fae529dfd03721ac4333621f9829eb04266755ce42fbbbfee2b2a05925420f23c9183918791906370a0823190602401602060405180830381865afa158015612e05573d6000803e3d6000fd5b505050506040513d601f19601f82011682018060405250810190612e29919061453b565b604080516001600160a01b03948516815293909216602084015290820152606081018590526080810184905260a00161272d565b811561334157604051631852e8d960e01b81526001600160a01b0382811660048301526024820184905283917f000000000000000000000000000000000000000000000000000000000000000090911690631852e8d9906044016020604051808303816000875af1925050508015612ef2575060408051601f3d908101601f19168201909252612eef9181019061453b565b60015b1561312a578015801590612f065750838111155b1561312857612f158185614594565b60405163095ea7b360e01b81526001600160a01b037f000000000000000000000000000000000000000000000000000000000000000081166004830152602482018490529193509087169063095ea7b3906044016020604051808303816000875af1158015612f88573d6000803e3d6000fd5b505050506040513d601f19601f82011682018060405250810190612fac91906146f4565b5060405163236ff03560e11b81526001600160a01b0384811660048301528781166024830152604482018690527f000000000000000000000000000000000000000000000000000000000000000016906346dfe06a90606401600060405180830381600087803b15801561301f57600080fd5b505af1925050508015613030575060015b6130ca576130686001600160a01b0387167f000000000000000000000000000000000000000000000000000000000000000083613b81565b7ff738d3a3e85cfb95059e84948355ea9473fb8be9d4c080e81f5ab1977b3ab33c7f00000000000000000000000000000000000000000000000000000000000000008488846040516130bd949392919061470f565b60405180910390a1613128565b7f65dd33fee2d9eea1276a9c3faeb2d790e64c498477bb7c29e68ef4abfda14b847f000000000000000000000000000000000000000000000000000000000000000084888460405161311f949392919061470f565b60405180910390a15b505b801561333f5760405163095ea7b360e01b81526001600160a01b037f0000000000000000000000000000000000000000000000000000000000000000811660048301526024820183905286169063095ea7b3906044016020604051808303816000875af115801561319f573d6000803e3d6000fd5b505050506040513d601f19601f820116820180604052508101906131c391906146f4565b5060405163236ff03560e11b81526001600160a01b0383811660048301528681166024830152604482018390527f000000000000000000000000000000000000000000000000000000000000000016906346dfe06a90606401600060405180830381600087803b15801561323657600080fd5b505af1925050508015613247575060015b6132e15761327f6001600160a01b0386167f000000000000000000000000000000000000000000000000000000000000000083613b81565b7f776785fc8cb1d4b315ce8a5e0a48cfa1db8a5bc15e74371a272f9a3e66f5f9ba7f00000000000000000000000000000000000000000000000000000000000000008387846040516132d4949392919061470f565b60405180910390a161333f565b7f788b5d6abdef89dfaf1417b81ef90ccd3cb069cf1687f0491371cfe9a22981ef7f0000000000000000000000000000000000000000000000000000000000000000838784604051613336949392919061470f565b60405180910390a15b505b8215610b8957610b896001600160a01b0385168285613b81565b600082600001828154811061337257613372614417565b9060005260206000200154905092915050565b60006000198260200151141580156133a05750602082015115155b80156133ba575060408201516001600160501b0390811614155b80156133d2575060408201516001600160501b031615155b80156133e6575081516001600160ff1b0314155b80156133f757508151600160ff1b14155b8015611c015750505160001290565b60008083131580613418575060008213155b1561342557506000611c01565b600083831361343d576134388385614739565b613447565b6134478484614739565b600114949350505050565b6000828152600a60205260408120819060ff8416610100811061347757613477614417565b01546000858152600a602052604090205490915081158061349757508082145b95945050505050565b6134cd6040518060600160405280600081526020016000815260200160006001600160501b031681525090565b600080600080856001600160a01b031663feaf968c6040518163ffffffff1660e01b815260040160a060405180830381865afa158015613511573d6000803e3d6000fd5b505050506040513d601f19601f8201168201806040525081019061353591906145fa565b945094505093509350806001600160501b0316846001600160501b031603613586576040518060600160405280848152602001838152602001856001600160501b0316815250945050505050919050565b6040518060600160405280600081526020016000815260200160006001600160501b0316815250945050505050919050565b60008181526001830160205260408120546135ff57508154600181810184556000848152602080822090930184905584548482528286019093526040902091909155611c01565b506000611c01565b6060610c1283836000613bb2565b60008181526001830160205260408120541515610c12565b60c08201516000908190806136455750826101200151155b61159657604083015160ff166004148015613667578460a00151925050611596565b6080850151604085015160ff908116911614801561379f576136d38660a00151600a600089602001518152602001908152602001600020886080015160ff1661010081106136b7576136b7614417565b01546020898101516000908152600a9091526040902054613c45565b602080890151600090815260039091526040812060808a01519397509195509161370b919060ff16600481106103e0576103e0614417565b61373d600460008a602001518152602001908152602001600020896080015160ff16600481106103e0576103e0614417565b6137479190614594565b90508060010361379d57602087810180516000908152600a909252604080832060ff01549151835282205461377c9190614594565b905061378885876145e7565b811115611591576137998682614594565b9450505b505b50509250929050565b600083815260016020526040902082156137c457600781018390555b81156137d257600881018290555b60058101805460ff19166001908117909155810154600090815260036020526040812061380191869190611d08565b50600181015460009081526003602081905260409091209082015461383c918691600160a01b900460ff1660048110611d0857611d08614417565b5060038101546001600160a01b03908116600090815260086020908152604080832060098601549094168352929052908120805485929061387e9084906145e7565b909155505060038101546001600160a01b03808216600090815260086020908152604080832060098701549094168352929052208491600160a01b900460ff16600481106138ce576138ce614417565b0160008282546138de91906145e7565b909155505060038101546009820154604080518781526001600160a01b039384166020820152929091169082015260608101849052608081018390527f9821c16f1b7f8cc926056f3f327e5fdf5e3f2873412340af6ff28e71129688829060a00161272d565b600061395082846145e7565b90508015613988576000848152600a6020526040902060ff01546139759082906145e7565b6000858152600a6020526040902060ff01555b6000848152600a60205260409020805460ff9091015411156139e45760405162461bcd60e51b8152602060048201526015602482015274125b9cdd59999a58da595b9d141c9a5e995c1bdbdb605a1b604482015260640161035e565b60408051858152602081018590529081018390527fe5e66807daf4e207ef989c8783ff5bac7c5e1172cc88a4abbea46064a774acc69060600161272d565b806101200151613a2f5750565b806101c0015115613a3d5750565b604081015160ff8116613a4e575050565b600060031960ff831601613a925782516000908152600360205260408120613a75916103e0565b83516000908152600460205260408120613a8e916103e0565b1490505b60ff821660011480613aa7575060ff82166002145b80613ab5575060ff82166003145b15613b105782516000908152600360205260409020613ae29060ff8416600481106103e0576103e0614417565b83516000908152600460208190526040909120613b0c9160ff86169081106103e0576103e0614417565b1490505b8015610bf55782516000908152600260209081526040808320601101805460ff60a01b1916600160a01b861515021790558551835291829020426012909101819055855192519081527f534af698f2502cb5d7fefd8d3e3e9b82fdb653897db77380304fa479a1ce9aa6910161175d565b6040516001600160a01b03838116602483015260448201839052610bf591859182169063a9059cbb90606401611f5c565b606081471015613bd75760405163cd78605960e01b815230600482015260240161035e565b600080856001600160a01b03168486604051613bf39190614767565b60006040518083038185875af1925050503d8060008114613c30576040519150601f19603f3d011682016040523d82523d6000602084013e613c35565b606091505b509150915061201a868383613c8c565b6000808084613c548786614796565b613c5e91906147ad565b9050613c75613c6e600183614796565b6064613ce8565b9150613c818282614594565b925050935093915050565b606082613ca157613c9c82613d33565b610c12565b8151158015613cb857506001600160a01b0384163b155b15613ce157604051639996b31560e01b81526001600160a01b038516600482015260240161035e565b5080610c12565b600081600003613d0357613cfc82846147ad565b9050611c01565b8215613d2a5781613d15600185614594565b613d1f91906147ad565b613c9c9060016145e7565b50600092915050565b805115613d435780518082602001fd5b604051630a12f52160e11b815260040160405180910390fd5b50565b60405180608001604052806004906020820280368337509192915050565b6040805161016081018252600080825260208201819052918101829052606081018290526080810182905260a0810182905260c0810182905260e081018290526101008101829052610120810182905261014081019190915290565b60408051610200810182526000808252602082018190529181019190915260608101613e286040518060600160405280600081526020016000815260200160006001600160501b031681525090565b8152604080516060810182526000808252602082810182905292820152910190815260200160008152602001600081526020016000815260200160008152602001600015158152602001600081526020016000815260200160006001600160a01b0316815260200160006001600160a01b03168152602001600015158152602001600081525090565b6001600160501b0381168114613d5c57600080fd5b60008060408385031215613ed957600080fd5b823591506020830135613eeb81613eb1565b809150509250929050565b6001600160a01b0381168114613d5c57600080fd5b60008060408385031215613f1e57600080fd5b8235613f2981613ef6565b91506020830135613eeb81613ef6565b8060005b6004811015610b89578151845260209384019390910190600101613f3d565b6001600160a01b03851681526101a08101613f7a6020830186613f39565b613f8760a0830185613f39565b613497610120830184613f39565b600060208284031215613fa757600080fd5b8135610c1281613ef6565b803560ff81168114613fc357600080fd5b919050565b60008060008060808587031215613fde57600080fd5b84359350613fee60208601613fb2565b93969395505050506040820135916060013590565b60008060006060848603121561401857600080fd5b8335925060208401359150604084013561403181613ef6565b809150509250925092565b6000806040838503121561404f57600080fd5b823561405a81613ef6565b946020939093013593505050565b60008060006060848603121561407d57600080fd5b833561408881613ef6565b925061409660208501613fb2565b9150604084013590509250925092565b80518252602081015160208301526040810151604083015260608101516140d860608401826001600160a01b03169052565b5060808101516140ed608084018260ff169052565b5060a081015160a083015260c081015161410b60c084018215159052565b5060e0818101519083015261010080820151908301526101208082015190830152610140808201516001600160a01b03811682850152610b89565b604080825283519082018190526000906020906060840190828701845b8281101561418a576141768483516140a6565b610160939093019290840190600101614163565b505050602093909301939093525092915050565b600080600080608085870312156141b457600080fd5b843593506020850135925060408501356141cd81613ef6565b915060608501356141dd81613eb1565b939692955090935050565b6000602082840312156141fa57600080fd5b5035919050565b6101608101611c0182846140a6565b6000610400820190508551825260208601516020830152604086015161423b604084018260ff169052565b50606086015161426b606084018280518252602080820151908301526040908101516001600160501b0316910152565b506080860151805160c0840152602081015160e084015260408101516001600160501b03166101008401525060a0860151610120818185015260c08801519150610140828186015260e0890151925061016083818701526101008a015193506101808481880152838b015194506101a093506142ea8488018615159052565b918a01516101c087810191909152908a01516101e080880191909152918a01516001600160a01b03908116610200880152928a01519092166102208601529088015115156102408501528701516102608401525061434c610280830186613f39565b61435a610300830185613f39565b613497610380830184613f39565b60008060006060848603121561437d57600080fd5b8335925061409660208501613fb2565b600080604083850312156143a057600080fd5b50508035926020909101359150565b604080825283519082018190526000906020906060840190828701845b8281101561418a578151845292840192908401906001016143cc565b60208082526015908201527413db9b1e5153d054d95b99195c9cd05b1b1bddd959605a1b604082015260600190565b634e487b7160e01b600052603260045260246000fd5b634e487b7160e01b600052604160045260246000fd5b604051610120810167ffffffffffffffff8111828210171561447557634e487b7160e01b600052604160045260246000fd5b60405290565b8051613fc381613ef6565b805161ffff81168114613fc357600080fd5b80518015158114613fc357600080fd5b600061012082840312156144bb57600080fd5b6144c3614443565b825181526144d36020840161447b565b60208201526144e46040840161447b565b60408201526144f560608401614486565b60608201526080830151608082015260a083015160a082015260c083015160c082015260e083015160e0820152610100614530818501614498565b908201529392505050565b60006020828403121561454d57600080fd5b5051919050565b634e487b7160e01b600052601260045260246000fd5b60008261457957614579614554565b500690565b634e487b7160e01b600052601160045260246000fd5b81810381811115611c0157611c0161457e565b6000600182016145b9576145b961457e565b5060010190565b6001600160501b038181168382160190808211156145e0576145e061457e565b5092915050565b80820180821115611c0157611c0161457e565b600080600080600060a0868803121561461257600080fd5b855161461d81613eb1565b80955050602086015193506040860151925060608601519150608086015161464481613eb1565b809150509295509295909350565b67ffffffffffffffff8181168382160190808211156145e0576145e061457e565b8a81526001600160a01b038a8116602083015289811660408301528816606082015261018081016146c4608083018980518252602080820151908301526040908101516001600160501b0316910152565b60e08201969096526101008101949094526101208401929092526101408301526101609091015295945050505050565b60006020828403121561470657600080fd5b610c1282614498565b6001600160a01b039485168152928416602084015292166040820152606081019190915260800190565b60008261474857614748614554565b600160ff1b8214600019841416156147625761476261457e565b500590565b6000825160005b81811015614788576020818601810151858301520161476e565b506000920191825250919050565b8082028115828204841417611c0157611c0161457e565b6000826147bc576147bc614554565b50049056fea2646970667358221220e5ca3cc99f40f094226340dee780c30057b571ffdf441080aa049c41e50454c564736f6c63430008170033",
  "linkReferences": {},
  "deployedLinkReferences": {}
}