{
  "_format": "hh-sol-artifact-1",
  "contractName": "VestingOraclyV1",
  "sourceName": "contracts/vesting/VestingOraclyV1.sol",
  "abi": [
    {
      "inputs": [
        {
          "internalType": "address",
          "name": "beneficiary",
          "type": "address"
        }
      ],
      "stateMutability": "nonpayable",
      "type": "constructor"
    },
    {
      "inputs": [
        {
          "internalType": "address",
          "name": "target",
          "type": "address"
        }
      ],
      "name": "AddressEmptyCode",
      "type": "error"
    },
    {
      "inputs": [
        {
          "internalType": "address",
          "name": "account",
          "type": "address"
        }
      ],
      "name": "AddressInsufficientBalance",
      "type": "error"
    },
    {
      "inputs": [],
      "name": "FailedInnerCall",
      "type": "error"
    },
    {
      "inputs": [
        {
          "internalType": "address",
          "name": "owner",
          "type": "address"
        }
      ],
      "name": "OwnableInvalidOwner",
      "type": "error"
    },
    {
      "inputs": [
        {
          "internalType": "address",
          "name": "account",
          "type": "address"
        }
      ],
      "name": "OwnableUnauthorizedAccount",
      "type": "error"
    },
    {
      "inputs": [
        {
          "internalType": "address",
          "name": "token",
          "type": "address"
        }
      ],
      "name": "SafeERC20FailedOperation",
      "type": "error"
    },
    {
      "anonymous": false,
      "inputs": [
        {
          "indexed": true,
          "internalType": "address",
          "name": "token",
          "type": "address"
        },
        {
          "indexed": false,
          "internalType": "uint256",
          "name": "amount",
          "type": "uint256"
        }
      ],
      "name": "ERC20Released",
      "type": "event"
    },
    {
      "anonymous": false,
      "inputs": [
        {
          "indexed": false,
          "internalType": "uint256",
          "name": "amount",
          "type": "uint256"
        }
      ],
      "name": "EtherReleased",
      "type": "event"
    },
    {
      "anonymous": false,
      "inputs": [
        {
          "indexed": true,
          "internalType": "address",
          "name": "previousOwner",
          "type": "address"
        },
        {
          "indexed": true,
          "internalType": "address",
          "name": "newOwner",
          "type": "address"
        }
      ],
      "name": "OwnershipTransferred",
      "type": "event"
    },
    {
      "inputs": [],
      "name": "CLIFF",
      "outputs": [
        {
          "internalType": "uint64",
          "name": "",
          "type": "uint64"
        }
      ],
      "stateMutability": "view",
      "type": "function"
    },
    {
      "inputs": [],
      "name": "DURATION",
      "outputs": [
        {
          "internalType": "uint64",
          "name": "",
          "type": "uint64"
        }
      ],
      "stateMutability": "view",
      "type": "function"
    },
    {
      "inputs": [],
      "name": "duration",
      "outputs": [
        {
          "internalType": "uint256",
          "name": "",
          "type": "uint256"
        }
      ],
      "stateMutability": "view",
      "type": "function"
    },
    {
      "inputs": [],
      "name": "end",
      "outputs": [
        {
          "internalType": "uint256",
          "name": "",
          "type": "uint256"
        }
      ],
      "stateMutability": "view",
      "type": "function"
    },
    {
      "inputs": [],
      "name": "owner",
      "outputs": [
        {
          "internalType": "address",
          "name": "",
          "type": "address"
        }
      ],
      "stateMutability": "view",
      "type": "function"
    },
    {
      "inputs": [
        {
          "internalType": "address",
          "name": "token",
          "type": "address"
        }
      ],
      "name": "releasable",
      "outputs": [
        {
          "internalType": "uint256",
          "name": "",
          "type": "uint256"
        }
      ],
      "stateMutability": "view",
      "type": "function"
    },
    {
      "inputs": [],
      "name": "releasable",
      "outputs": [
        {
          "internalType": "uint256",
          "name": "",
          "type": "uint256"
        }
      ],
      "stateMutability": "view",
      "type": "function"
    },
    {
      "inputs": [
        {
          "internalType": "address",
          "name": "token",
          "type": "address"
        }
      ],
      "name": "release",
      "outputs": [],
      "stateMutability": "nonpayable",
      "type": "function"
    },
    {
      "inputs": [],
      "name": "release",
      "outputs": [],
      "stateMutability": "nonpayable",
      "type": "function"
    },
    {
      "inputs": [],
      "name": "released",
      "outputs": [
        {
          "internalType": "uint256",
          "name": "",
          "type": "uint256"
        }
      ],
      "stateMutability": "view",
      "type": "function"
    },
    {
      "inputs": [
        {
          "internalType": "address",
          "name": "token",
          "type": "address"
        }
      ],
      "name": "released",
      "outputs": [
        {
          "internalType": "uint256",
          "name": "",
          "type": "uint256"
        }
      ],
      "stateMutability": "view",
      "type": "function"
    },
    {
      "inputs": [],
      "name": "renounceOwnership",
      "outputs": [],
      "stateMutability": "nonpayable",
      "type": "function"
    },
    {
      "inputs": [],
      "name": "start",
      "outputs": [
        {
          "internalType": "uint256",
          "name": "",
          "type": "uint256"
        }
      ],
      "stateMutability": "view",
      "type": "function"
    },
    {
      "inputs": [
        {
          "internalType": "address",
          "name": "newOwner",
          "type": "address"
        }
      ],
      "name": "transferOwnership",
      "outputs": [],
      "stateMutability": "nonpayable",
      "type": "function"
    },
    {
      "inputs": [
        {
          "internalType": "uint64",
          "name": "timestamp",
          "type": "uint64"
        }
      ],
      "name": "vestedAmount",
      "outputs": [
        {
          "internalType": "uint256",
          "name": "",
          "type": "uint256"
        }
      ],
      "stateMutability": "view",
      "type": "function"
    },
    {
      "inputs": [
        {
          "internalType": "address",
          "name": "token",
          "type": "address"
        },
        {
          "internalType": "uint64",
          "name": "timestamp",
          "type": "uint64"
        }
      ],
      "name": "vestedAmount",
      "outputs": [
        {
          "internalType": "uint256",
          "name": "",
          "type": "uint256"
        }
      ],
      "stateMutability": "view",
      "type": "function"
    },
    {
      "stateMutability": "payable",
      "type": "receive"
    }
  ],
  "bytecode": "0x60c060405234801561001057600080fd5b50604051610c13380380610c1383398101604081905261002f916100e5565b8061003d62ed4e0042610115565b6303170400826001600160a01b03811661007157604051631e4fbdf760e01b81526000600482015260240160405180910390fd5b61007a81610095565b506001600160401b039182166080521660a0525061013c9050565b600080546001600160a01b038381166001600160a01b0319831681178455604051919092169283917f8be0079c531659141344cd1fd0a4f28419497f9722a3daafe3b4186f6b6457e09190a35050565b6000602082840312156100f757600080fd5b81516001600160a01b038116811461010e57600080fd5b9392505050565b8082018082111561013657634e487b7160e01b600052601160045260246000fd5b92915050565b60805160a051610aa461016f600039600081816101900152818161057401526106540152600061054d0152610aa46000f3fe6080604052600436106100f75760003560e01c8063961325211161008a578063be9a655511610059578063be9a655514610305578063efbe1c1c1461031a578063f2fde38b1461032f578063fbccedae1461034f57600080fd5b806396132521146102835780639852595c14610298578063a3f8eace146102ce578063b87592f2146102ee57600080fd5b8063715018a6116100c6578063715018a614610211578063810ec23b1461022657806386d1a69f146102465780638da5cb5b1461025b57600080fd5b80630a17b06b1461014e5780630fb5a6b41461018157806319165587146101be5780631be05289146101e057600080fd5b366101495760405162461bcd60e51b815260206004820152601860248201527f4e6174697665546f6b656e5265636569766549734e4f4f50000000000000000060448201526064015b60405180910390fd5b600080fd5b34801561015a57600080fd5b5061016e61016936600461090f565b610364565b6040519081526020015b60405180910390f35b34801561018d57600080fd5b507f000000000000000000000000000000000000000000000000000000000000000067ffffffffffffffff1661016e565b3480156101ca57600080fd5b506101de6101d9366004610941565b610388565b005b3480156101ec57600080fd5b506101f8630317040081565b60405167ffffffffffffffff9091168152602001610178565b34801561021d57600080fd5b506101de610423565b34801561023257600080fd5b5061016e61024136600461095c565b610437565b34801561025257600080fd5b506101de6104cd565b34801561026757600080fd5b506000546040516001600160a01b039091168152602001610178565b34801561028f57600080fd5b5060015461016e565b3480156102a457600080fd5b5061016e6102b3366004610941565b6001600160a01b031660009081526002602052604090205490565b3480156102da57600080fd5b5061016e6102e9366004610941565b610515565b3480156102fa57600080fd5b506101f862ed4e0081565b34801561031157600080fd5b5061016e610542565b34801561032657600080fd5b5061016e610570565b34801561033b57600080fd5b506101de61034a366004610941565b6105b4565b34801561035b57600080fd5b5061016e6105f2565b600061038261037260015490565b61037c90476109a5565b83610610565b92915050565b600061039382610515565b6001600160a01b0383166000908152600260205260408120805492935083929091906103c09084906109a5565b90915550506040518181526001600160a01b038316907fc0e523490dd523c33b1878c9eb14ff46991e3f5b2cd33710918618f2a39cba1b9060200160405180910390a261041f826104196000546001600160a01b031690565b836106b4565b5050565b61042b61070b565b6104356000610738565b565b6001600160a01b0382166000908152600260205260408120546104c6906040516370a0823160e01b81523060048201526001600160a01b038616906370a0823190602401602060405180830381865afa158015610498573d6000803e3d6000fd5b505050506040513d601f19601f820116820180604052508101906104bc91906109b8565b61037c91906109a5565b9392505050565b60405162461bcd60e51b815260206004820152601860248201527f4e6174697665546f6b656e52656c6561736549734e4f4f5000000000000000006044820152606401610140565b6001600160a01b0381166000908152600260205260408120546105388342610437565b61038291906109d1565b67ffffffffffffffff7f00000000000000000000000000000000000000000000000000000000000000001690565b60007f000000000000000000000000000000000000000000000000000000000000000067ffffffffffffffff166105a5610542565b6105af91906109a5565b905090565b6105bc61070b565b6001600160a01b0381166105e657604051631e4fbdf760e01b815260006004820152602401610140565b6105ef81610738565b50565b60006105fd60015490565b61060642610364565b6105af91906109d1565b600061061a610542565b8267ffffffffffffffff16101561063357506000610382565b61063b610570565b8267ffffffffffffffff1610610652575081610382565b7f000000000000000000000000000000000000000000000000000000000000000067ffffffffffffffff16610685610542565b6106999067ffffffffffffffff85166109d1565b6106a390856109e4565b6106ad91906109fb565b9050610382565b604080516001600160a01b038416602482015260448082018490528251808303909101815260649091019091526020810180516001600160e01b031663a9059cbb60e01b179052610706908490610788565b505050565b6000546001600160a01b031633146104355760405163118cdaa760e01b8152336004820152602401610140565b600080546001600160a01b038381166001600160a01b0319831681178455604051919092169283917f8be0079c531659141344cd1fd0a4f28419497f9722a3daafe3b4186f6b6457e09190a35050565b600061079d6001600160a01b038416836107eb565b905080516000141580156107c25750808060200190518101906107c09190610a1d565b155b1561070657604051635274afe760e01b81526001600160a01b0384166004820152602401610140565b60606104c68383600084600080856001600160a01b031684866040516108119190610a3f565b60006040518083038185875af1925050503d806000811461084e576040519150601f19603f3d011682016040523d82523d6000602084013e610853565b606091505b509150915061086386838361086d565b9695505050505050565b6060826108825761087d826108c9565b6104c6565b815115801561089957506001600160a01b0384163b155b156108c257604051639996b31560e01b81526001600160a01b0385166004820152602401610140565b50806104c6565b8051156108d95780518082602001fd5b604051630a12f52160e11b815260040160405180910390fd5b803567ffffffffffffffff8116811461090a57600080fd5b919050565b60006020828403121561092157600080fd5b6104c6826108f2565b80356001600160a01b038116811461090a57600080fd5b60006020828403121561095357600080fd5b6104c68261092a565b6000806040838503121561096f57600080fd5b6109788361092a565b9150610986602084016108f2565b90509250929050565b634e487b7160e01b600052601160045260246000fd5b808201808211156103825761038261098f565b6000602082840312156109ca57600080fd5b5051919050565b818103818111156103825761038261098f565b80820281158282048414176103825761038261098f565b600082610a1857634e487b7160e01b600052601260045260246000fd5b500490565b600060208284031215610a2f57600080fd5b815180151581146104c657600080fd5b6000825160005b81811015610a605760208186018101518583015201610a46565b50600092019182525091905056fea2646970667358221220029694efde7b290015f92dd653b6296f82751b38b63a3b0a11d416579756b2b264736f6c63430008140033",
  "linkReferences": {},
  "deployedLinkReferences": {}
}